:020000040800F2
:1000000000000220D90F0008990B0008A10B00087E
:10001000A90B0008B10B0008B90B00080000000094
:10002000000000000000000000000000C10B0008FC
:10003000CF0B000800000000DD0B0008EB0B0008F0
:1000400029100008291000082910000829100008AC
:10005000291000082910000829100008291000089C
:10006000291000082910000829100008291000088C
:10007000291000082910000829100008291000087C
:1000800029100008291000082910000800000000AD
:10009000000000000000000000000000291000081F
:1000A000291000082910000829100008291000084C
:1000B000291000082910000829100008291000083C
:1000C000291000082910000829100008291000082C
:1000D00029100008510F0008291000080000000036
:1000E000291000082910000829100008000000004D
:1000F00000000000000000000000000029100008BF
:10010000000000002910000829100008291000082C
:1001100000000000000000000000000000000000DF
:1001200029100008291000082910000829100008CB
:10013000291000080000000000000000000000007E
:10014000000000000000000000000000291000086E
:10015000291000082910000829100008291000089B
:10016000291000082910000800000000000000000D
:10017000000000000000000000000000000000007F
:10018000000000002910000800000000000000002E
:080190002910000829100008E5
:1001980010B5054C237833B9044B13B10448AFF3B9
:1001A80000800123237010BD0C0000200000000017
:1001B8001020000808B5034B1BB103490348AFF3EF
:1001C800008008BD0000000010000020102000087A
:1001D80053B94AB9002908BF00281CBF4FF0FF31A6
:1001E8004FF0FF3000F088B9ADF1080C6DE904CE8E
:1001F80000F006F8DDF804E0DDE9022304B07047FA
:100208002DE9F047089D0F4604468C46002B48D13F
:100218008A42164661D9B2FA82F34BB1C3F1200281
:1002280001FA03FC20FA02F29E4042EA0C0C9C40C0
:100238004FEA164EB7B2BCFBFEF1220C0EFB11CCF6
:1002480042EA0C4201FB07F0904209D9B21801F1C9
:10025800FF3C80F0EE80904240F2EB80023932445D
:10026800121AA4B2B2FBFEF00EFB102244EA0244BA
:1002780000FB07F7A74209D9341900F1FF3280F0D3
:10028800DA80A74240F2D7803444023840EA01407D
:10029800E41B00211DB1DC400023C5E90043BDE893
:1002A800F0878B4206D90DB1C5E900010021084647
:1002B800BDE8F087B3FA83F1002948D1BB4202D3E5
:1002C800824200F20781841A67EB030201209446F8
:1002D800002DE4D0C5E9004CE1E7002A00F0928047
:1002E800B2FA82F3002B40F0A8808A1A4FEA164E21
:1002F8001FFA86FC0121200CB2FBFEF70EFB172229
:1003080040EA02420CFB07F0904207D9B21807F105
:10031800FF3802D2904200F2E2804746121AA4B295
:10032800B2FBFEF00EFB102244EA02440CFB00FC78
:10033800A44507D9341900F1FF3202D2A44500F2CE
:10034800CB801046A4EB0C0440EA0740A2E7C1F1B9
:1003580020068B4022FA06FC4CEA030C07FA01F44B
:1003680020FA06F3F7404FEA1C49234300FA01F844
:100378001FFA8CFEB7FBF9F01C0C09FB107744EA56
:10038800074400FB0EF7A74202FA01F20AD91CEB58
:10039800040400F1FF3A80F09B80A74240F2988065
:1003A80002386444E41B9FB2B4FBF9F309FB13441D
:1003B80047EA044403FB0EFEA64509D91CEB0404D6
:1003C80003F1FF3780F08280A6457FD9023B644461
:1003D80043EA0040A4EB0E04A0FB02E7BC427346CC
:1003E800B94663D360D05DB1B8EB030264EB09048E
:1003F80004FA06F622FA01F31E43CC40C5E900646C
:1004080000214CE76208480842EAC1710B0C43EA34
:1004180000438AB242EA0342B3FBF6F1E407B4466A
:100428003746B6461F23B0FBF6F0D21B41EA00411F
:1004380061E7614614E7104628E7C3F1200120FA76
:1004480001F29E4027FA01F19F403A434FEA164EC7
:100458001FFA86FCB1FBFEF70EFB1710110C41EAE0
:10046800004107FB0CF8884504FA03F43AD97118DF
:1004780007F1FF3001D288451FD8A1EB0801B1FB75
:10048800FEF808FB0CF70EFB181192B242EA014283
:10049800BA422FD2B21808F1FF31C6D2BA42C4D23A
:1004A800A8F102013244C0E7F0459CD2BEEB02033A
:1004B80067EB0C070138B94695E7A6EB08084144F5
:1004C800B81EB1FBFEF808FB0CF7DCE73B467FE7FC
:1004D800504667E70846FBE63444023832E7023FF5
:1004E80032441BE7A1EB08013846B1FBFEF808FBD4
:1004F8000CF7C8E7414698E7704700BF80B400AFE3
:10050800294B1B6B284A43F002031363264B1B6CD1
:10051800254A43F400131364244B1B68234A23F42D
:1005280070431360214B1B68204A43F42043136037
:100538001E4B5B681D4A43F0C00353601B4B9B680E
:100548001A4A43F470439360184BDB68174A23F444
:100558007043D360154B1B6A144A23F07F43136220
:10056800124B1B6A114A43F088431362104B1B68F5
:100578000F4A23F0010313600D4B32225A600C4BD3
:10058800FA22DA610A4B33221A62094B4FF480626D
:100598001A60074B1B68064A43F00103136000BF4B
:1005A800BD465DF8047B70470038024000040240F5
:1005B8000054004080B483B000AF44F620637B60F1
:1005C80007E07B68013B7B607B68002B01D101233E
:1005D8001EE0124B9B6903F00203002BF1D10F4B75
:1005E8001B680E4A43F48073136044F620637B60F3
:1005F80007E07B68013B7B607B68002B01D102230D
:1006080006E0064B5B6903F00103002BF1D00023E1
:1006180018460C37BD465DF8047B7047005400400F
:1006280080B483B000AF0F4B1B680E4A43F40073CD
:10063800136044F620637B6005E07B68013B7B60C8
:100648007B68002B06D0074B9B6903F00203002B45
:10065800F3D100E000BF00BF0C37BD465DF8047B56
:10066800704700BF0054004080B485B000AF034617
:100678000A46FB711346BB7144F62063FB601F4BAF
:100688005B691E4A23F480635361FB795B00DAB22D
:10069800BB7903F00103DBB21343DAB2174B1A61DB
:1006A8001BE0164B5B6903F48063002B07D0134BE8
:1006B8001B68124A43F400731360032318E0FB68B5
:1006C800013BFB60FB68002B07D10C4B1B680B4AF6
:1006D80043F40073136004230AE0084B5B6903F0DA
:1006E8000203002BDDD0054B5B69044B9B6900239B
:1006F80018461437BD465DF8047B70470054004027
:1007080080B582B000AF00F08DFC00F059F800F021
:100718002BF900F0BDF800F0F1F800F099FA642028
:1007280000F0F2FC1D4800F0F9FBFFF7E7FE1C485B
:1007380000F0F4FB1B4B9B6903F00203002B03D072
:10074800194800F0EBFB02E0184800F0E7FBFFF760
:1007580031FF0346FB71FB79002B17D1144800F0D9
:10076800DDFB00216820FFF77FFF0346FB71FB7963
:10077800002B05D1FFF754FF0E4800F0CFFB08E02F
:10078800FFF74EFF0C4800F0C9FB02E00B4800F0F1
:10079800C5FB4FF47A7000F0B7FCFAE72820000890
:1007A80038200008005400404C2000085C20000855
:1007B8006C2000087820000894200008B020000869
:1007C80080B594B000AF07F120033022002118460D
:1007D80001F0EDFB07F10C0300221A605A609A60E1
:1007E800DA601A610023BB60274B1B6C264A43F072
:1007F80080531364244B1B6C03F08053BB60BB68AD
:1008080000237B60214B1B68204A43F4404313605C
:100818001E4B1B6803F440437B607B6801233B62EB
:100828004FF480337B620223BB634FF48003FB6386
:100838000C233B6460237B640223BB640423FB64B6
:1008480007F12003184600F007FF0346002B01D0EC
:1008580000F0F2F80F23FB6002233B6100237B6169
:100868004FF48053BB610023FB6107F10C030321A4
:10087800184601F069F90346002B01D000F0DCF8B6
:1008880000BF5037BD4680BD0038024000700040B0
:1008980080B500AF174B184A1A60164B4FF4827296
:1008A8005A60144B00229A60124B0022DA60114BF6
:1008B80000221A610F4B00225A610E4B4FF400724E
:1008C8009A610C4B1822DA610A4B00221A62094B12
:1008D80000225A62074B00229A62064B0A22DA6209
:1008E800044801F0DBFA0346002B01D000F0A4F81D
:1008F80000BF80BD280000200030014080B500AF57
:10090800174B184A1A60164B4FF482725A60144BF0
:1009180000229A60124B0022DA60114B00221A6101
:100928000F4B00225A610E4B4FF400729A610C4B28
:100938002022DA610A4B00221A62094B00225A620D
:10094800074B00229A62064B0A22DA62044801F039
:10095800A5FA0346002B01D000F06EF800BF80BD59
:10096800800000200038004080B588B000AF07F153
:100978000C0300221A605A609A60DA601A61002338
:10098800BB602A4B1B6B294A43F080031363274B38
:100998001B6B03F08003BB60BB6800237B60234BA9
:1009A8001B6B224A43F001031363204B1B6B03F0BC
:1009B80001037B607B6800233B601C4B1B6B1B4A5D
:1009C80043F002031363194B1B6B03F002033B60F4
:1009D8003B6801221821164800F024FE01224FF43A
:1009E8008051144800F01EFE1823FB6001233B6170
:1009F80000237B610223BB6107F10C0319460C48F5
:100A080000F08CFC4FF48053FB6001233B61002312
:100A18007B610223BB6107F10C031946054800F00E
:100A28007DFC00BF2037BD4680BD00BF00380240B6
:100A3800000002400004024080B400AF72B600BF5C
:100A480000BFFDE780B483B000AF00237B60104B8C
:100A58005B6C0F4A43F4804353640D4B5B6C03F4A7
:100A680080437B607B6800233B60094B1B6C084A12
:100A780043F080531364064B1B6C03F080533B60B8
:100A88003B6800BF0C37BD465DF8047B704700BF6C
:100A98000038024080B58CB000AF786007F11C03C5
:100AA80000221A605A609A60DA601A617B681B68D3
:100AB800324A93422CD10023BB61314B5B6C304AE4
:100AC80043F4805353642E4B5B6C03F48053BB6137
:100AD800BB6900237B612A4B1B6B294A43F0010346
:100AE8001363274B1B6B03F001037B617B69E023D6
:100AF800FB6102233B6200237B620323BB62052365
:100B0800FB6207F11C0319461E4800F007FC31E0A0
:100B18007B681B681C4A93422CD100233B61184B0D
:100B28001B6C174A43F480431364154B1B6C03F486
:100B380080433B613B690023FB60114B1B6B104AF0
:100B480043F0020313630E4B1B6B03F00203FB60BD
:100B5800FB684FF46043FB6102233B6200237B6226
:100B68000323BB620523FB6207F11C0319460748F0
:100B780000F0D4FB00BF3037BD4680BD00300140D7
:100B880000380240000002400038004000040240E3
:100B980080B400AF00BFFDE780B400AF00BFFDE741
:100BA80080B400AF00BFFDE780B400AF00BFFDE731
:100BB80080B400AF00BFFDE780B400AF00BFBD4602
:100BC8005DF8047B704780B400AF00BFBD465DF898
:100BD800047B704780B400AF00BFBD465DF8047B5E
:100BE800704780B500AF00F06FFA00BF80BD00000D
:100BF80080B400AF064BD3F88830054A43F470033D
:100C0800C2F8883000BFBD465DF8047B704700BF5E
:100C180000ED00E080B483B000AF0346FB7197F9A4
:100C28000730002B0BDBFB7903F01F02074997F90C
:100C380007305B09012000FA02F241F8232000BFC7
:100C48000C37BD465DF8047B704700BF00E100E04B
:100C580080B500AF404B1B6B3F4A43F00103136361
:100C68003D4B5B6C3C4A43F0100353643B4B1B68A1
:100C78003A4A23F440231360384B1B68374A43F43D
:100C880000231360354B5B68344A23F400735360C8
:100C9800324B9B68314A43F4402393602F4BDB6807
:100CA8002E4A23F44023D3602C4BDB682B4A43F4B1
:100CB8008023D360294B5B6A284A23F0F0035362F0
:100CC800264B5B6A254A43F070035362234B1B682B
:100CD800224A23F440131360204B1B681F4A43F435
:100CE800801313601D4BDB681C4A23F44013D36048
:100CF8001A4BDB68194A43F48013D360174B5B6ABD
:100D0800164A23F470635362144B5B6A134A43F424
:100D1800E0635362124BDB68114A23F40053D3603B
:100D28000F4B4FF459729A600D4B00221A604FF422
:100D380080720C490C4800F01DF84FF480720B4982
:100D48000B4800F017F8064B42F22C02DA60252017
:100D5800FFF760FF00BF80BD00380240000002407E
:100D680000100140D8000020D8020020D80100203F
:100D7800E402002080B485B000AFF860B960134683
:100D8800FB80FB68BA681A60FB68FA889A80FB687F
:100D98000022DA80FB6800221A81FB6800225A814F
:100DA80000BF1437BD465DF8047B704780B483B03C
:100DB80000AF78607B685B899BB2002B0CBF012376
:100DC8000023DBB218460C37BD465DF8047B70473C
:100DD80080B483B000AF78607B685B899AB27B6827
:100DE8009B889BB29A422CBF01230023DBB2184692
:100DF8000C37BD465DF8047B704780B582B000AF04
:100E080078600B46FB7072B600BF7868FFF7E0FFAA
:100E18000346002B03D062B600BF002320E07B68A6
:100E28001B687A68D28892B21344FA781A707B6881
:100E3800DB889BB201337A68928892B293FBF2F115
:100E480001FB02F29B1A9AB27B68DA807B685B89A5
:100E58009BB201339AB27B685A8162B600BF012304
:100E680018460837BD4680BD80B584B000AF7860AD
:100E78000023FB7372B600BF7868FFF797FF03463D
:100E880083F00103DBB2002B1DD07B681B687A68F6
:100E9800128992B213441B78FB737B681B899BB23F
:100EA80001337A68928892B293FBF2F101FB02F265
:100EB8009B1A9AB27B681A817B685B899BB2013B5B
:100EC8009AB27B685A8162B600BFFB7B184610371E
:100ED800BD4680BD80B582B000AF0346FB7100BF40
:100EE8000C48FFF775FF0346002BF9D172B600BF17
:100EF800FB7919460748FFF780FF074BDB68064A6E
:100F080043F08003D36062B600BF00BF0837BD4618
:100F180080BD00BFE40200200010014080B582B00F
:100F280000AF786006E07B685A1C7A601B78184628
:100F3800FFF7D0FF7B681B78002BF4D100BF00BF00
:100F48000837BD4680BD000080B582B000AF1D4B9C
:100F58001B6803F02003002B07D01A4B5B68FB715A
:100F6800FB7919461848FFF748FF164BDB6803F072
:100F78008003002B21D0134B1B6803F08003002B48
:100F88001BD01248FFF712FF034683F00103DBB2C0
:100F9800002B06D00D48FFF767FF03461A46094B9A
:100FA8005A600A48FFF702FF0346002B05D0054B9D
:100FB800DB68044A23F08003D36000BF0837BD46CE
:100FC80080BD00BF00100140D8020020E4020020CC
:100FD800DFF834D0FFF70CFE0C480D490D4A00230A
:100FE80002E0D458C4500433C4188C42F9D30A4AD6
:100FF8000A4C002301E013600432A242FBD300F044
:10100800DFFFFFF77DFB7047000002200000002093
:101018000C000020E42000080C000020F40200204E
:10102800FEE7000080B500AF0E4B1B680D4A43F485
:10103800007313600B4B1B680A4A43F48063136008
:10104800084B1B68074A43F480731360032000F0C1
:1010580031F90F2000F008F8FFF7F4FC00231846D8
:1010680080BD00BF003C024080B582B000AF786010
:10107800124B1A68124B1B7819464FF47A73B3FB5C
:10108800F1F3B2FBF3F3184600F03BF90346002BEB
:1010980001D001230EE07B680F2B0AD80022796863
:1010A8004FF0FF3000F011F9064A7B681360002307
:1010B80000E0012318460837BD4680BD0000002027
:1010C800080000200400002080B400AF064B1B7805
:1010D8001A46064B1B681344044A136000BFBD46FA
:1010E8005DF8047B704700BF08000020F002002074
:1010F80080B400AF034B1B681846BD465DF8047BFF
:10110800704700BFF002002080B584B000AF78605F
:10111800FFF7EEFFB8607B68FB60FB68B3F1FF3F49
:1011280005D00A4B1B781A46FB681344FB6000BFC6
:10113800FFF7DEFF0246BB68D31AFA689A42F7D86F
:1011480000BF00BF1037BD4680BD00BF08000020AB
:1011580080B485B000AF78607B6803F00703FB605C
:101168000C4BDB68BB60BA684FF6FF031340BB60EB
:10117800FB681A02BB68134343F0BF6343F40033B0
:10118800BB60044ABB68D36000BF1437BD465DF836
:10119800047B704700ED00E080B400AF044BDB68CF
:1011A8001B0A03F007031846BD465DF8047B704729
:1011B80000ED00E080B483B000AF03463960FB71F6
:1011C80097F90730002B0ADB3B68DAB20C4997F92C
:1011D80007301201D2B20B4483F800230AE03B68BF
:1011E800DAB20849FB7903F00F03043B1201D2B2CB
:1011F8000B441A7600BF0C37BD465DF8047B704778
:1012080000E100E000ED00E080B489B000AFF860D4
:10121800B9607A60FB6803F00703FB61FB69C3F1FF
:101228000703042B28BF0423BB61FB690433062B87
:1012380002D9FB69033B00E000237B614FF0FF32DA
:10124800BB6902FA03F3DA43BB681A407B699A4028
:101258004FF0FF317B6901FA03F3D9437B680B40F8
:10126800134318462437BD465DF8047B70470000D9
:1012780080B582B000AF78607B68013BB3F1807FB6
:1012880001D301230FE00A4A7B68013B53600F2119
:101298004FF0FF30FFF78EFF054B00229A60044B9A
:1012A80007221A60002318460837BD4680BD00BFD4
:1012B80010E000E080B582B000AF78607868FFF792
:1012C80047FF00BF0837BD4680BD80B586B000AF78
:1012D8000346B9607A60FB7300237B61FFF75CFF0C
:1012E80078617A68B9687869FFF78EFF024697F9DE
:1012F8000F3011461846FFF75DFF00BF1837BD468F
:1013080080BD80B582B000AF78607868FFF7B0FF25
:10131800034618460837BD4680BD000080B489B032
:1013280000AF7860396000237B6100233B610023B4
:10133800BB610023FB6159E10122FB6902FA03F357
:101348007B613B681B687A6913403B613A697B693A
:101358009A4240F048813B685B6803F00303012B25
:1013680005D03B685B6803F00303022B30D17B6830
:101378009B68BB61FB695B00032202FA03F3DB4352
:10138800BA691340BB613B68DA68FB695B0002FA23
:1013980003F3BA691343BB617B68BA699A607B68D7
:1013A8005B68BB610122FB6902FA03F3DB43BA699C
:1013B8001340BB613B685B681B0903F00102FB69D2
:1013C80002FA03F3BA691343BB617B68BA695A60CE
:1013D8003B685B6803F00303032B17D07B68DB686B
:1013E800BB61FB695B00032202FA03F3DB43BA69C2
:1013F8001340BB613B689A68FB695B0002FA03F320
:10140800BA691343BB617B68BA69DA603B685B6899
:1014180003F00303022B23D1FB69DA087B68083247
:1014280053F82230BB61FB6903F007039B000F22CE
:1014380002FA03F3DB43BA691340BB613B681A69DC
:10144800FB6903F007039B0002FA03F3BA6913432D
:10145800BB61FB69DA087B680832B96943F8221076
:101468007B681B68BB61FB695B00032202FA03F31C
:10147800DB43BA691340BB613B685B6803F0030256
:10148800FB695B0002FA03F3BA691343BB617B682B
:10149800BA691A603B685B6803F44033002B00F0BC
:1014A800A2800023FB60574B5B6C564A43F4804391
:1014B8005364544B5B6C03F48043FB60FB68524AF3
:1014C800FB699B08023352F82330BB61FB6903F0C8
:1014D80003039B000F2202FA03F3DB43BA691340AC
:1014E800BB617B68494A934219D07B68484A93425A
:1014F80013D07B68474A93420DD07B68464A934293
:1015080007D07B68454A934201D1042308E00723AA
:1015180006E0032304E0022302E0012300E00023A5
:10152800FA6902F0030292009340BA691343BB615F
:101538003549FB699B080233BA6941F82320384BC7
:101548009B68BB613B69DB43BA691340BB613B687D
:101558005B6803F48013002B03D0BA693B6913431B
:10156800BB612F4ABB6993602D4BDB68BB613B694C
:10157800DB43BA691340BB613B685B6803F4001343
:10158800002B03D0BA693B691343BB61244ABB698A
:10159800D360234B5B68BB613B69DB43BA6913408B
:1015A800BB613B685B6803F40033002B03D0BA6966
:1015B8003B691343BB611A4ABB695360184B1B68EC
:1015C800BB613B69DB43BA691340BB613B685B683D
:1015D80003F48033002B03D0BA693B691343BB6122
:1015E8000F4ABB691360FB690133FB61FB690F2B71
:1015F8007FF6A2AE00BF00BF2437BD465DF8047B6E
:10160800704700BF00380240003801400000024027
:101618000004024000080240000C02400010024092
:10162800003C014080B483B000AF78600B467B80FB
:1016380013467B707B78002B03D07A887B689A618D
:1016480003E07B881A047B689A6100BF0C37BD46AB
:101658005DF8047B7047000080B586B000AF786005
:101668007B68002B01D1012367E27B681B6803F0CC
:101678000103002B75D0884B9B6803F00C03042BE7
:101688000CD0854B9B6803F00C03082B12D1824BBE
:101698005B6803F48003B3F5800F0BD17E4B1B68A6
:1016A80003F40033002B5BD07B685B68002B57D1B9
:1016B800012342E27B685B68B3F5803F06D1764B35
:1016C8001B68754A43F4803313601DE07B685B68D0
:1016D800B3F5A02F0CD1704B1B686F4A43F48023DD
:1016E80013606D4B1B686C4A43F4803313600BE046
:1016F800694B1B68684A23F480331360664B1B6888
:10170800654A23F4802313607B685B68002B13D041
:10171800FFF7EEFC386108E0FFF7EAFC02463B6998
:10172800D31A642B01D9032307E25B4B1B6803F42C
:101738000033002BF0D014E0FFF7DAFC386108E042
:10174800FFF7D6FC02463B69D31A642B01D9032361
:10175800F3E1514B1B6803F40033002BF0D100E098
:1017680000BF7B681B6803F00203002B63D04A4B61
:101778009B6803F00C03002B0BD0474B9B6803F0CE
:101788000C03082B1CD1444B5B6803F48003002B2B
:1017980016D1414B1B6803F00203002B05D07B6870
:1017A800DB68012B01D00123C7E13B4B1B6823F009
:1017B800F8027B681B69DB00374913430B603AE08A
:1017C8007B68DB68002B20D0344B01221A60FFF7BE
:1017D8008FFC386108E0FFF78BFC02463B69D31A9F
:1017E800022B01D90323A8E12B4B1B6803F002034A
:1017F800002BF0D0284B1B6823F0F8027B681B698C
:10180800DB00254913430B6015E0244B00221A60C6
:10181800FFF76EFC386108E0FFF76AFC02463B6997
:10182800D31A022B01D9032387E11B4B1B6803F052
:101838000203002BF0D17B681B6803F00803002B20
:1018480036D07B685B69002B16D0154B01221A60D5
:10185800FFF74EFC386108E0FFF74AFC02463B6997
:10186800D31A022B01D9032367E10B4B5B6F03F0FB
:101878000203002BF0D01BE0094B00221A60FFF78F
:1018880037FC38610EE0FFF733FC02463B69D31A98
:10189800022B07D9032350E10038024000004742D9
:1018A800800E4742884B5B6F03F00203002BEAD19E
:1018B8007B681B6803F00403002B00F0978000236B
:1018C800FB75814B1B6C03F08053002B0FD1002359
:1018D800BB607D4B1B6C7C4A43F0805313647A4B8E
:1018E8001B6C03F08053BB60BB680123FB75774B0F
:1018F8001B6803F48073002B18D1744B1B68734A60
:1019080043F480731360FFF7F3FB386108E0FFF7D7
:10191800EFFB02463B69D31A022B01D903230CE1E2
:101928006A4B1B6803F48073002BF0D07B689B68BC
:10193800012B06D1644B1B6F634A43F00103136705
:101948001CE07B689B68052B0CD15F4B1B6F5E4AC4
:1019580043F0040313675C4B1B6F5B4A43F00103BE
:1019680013670BE0584B1B6F574A23F001031367AB
:10197800554B1B6F544A23F0040313677B689B681D
:10198800002B15D0FFF7B4FB38610AE0FFF7B0FB76
:1019980002463B69D31A41F28832934201D90323A4
:1019A800CBE0494B1B6F03F00203002BEED014E091
:1019B800FFF79EFB38610AE0FFF79AFB02463B6996
:1019C800D31A41F28832934201D90323B5E03E4B42
:1019D8001B6F03F00203002BEED1FB7D012B05D119
:1019E800394B1B6C384A23F0805313647B689B691E
:1019F800002B00F0A180344B9B6803F00C03082BEC
:101A08005CD07B689B69022B41D1314B00221A6064
:101A1800FFF76EFB386108E0FFF76AFB02463B6997
:101A2800D31A022B01D9032387E0274B1B6803F045
:101A38000073002BF0D17B68DA697B681B6A1A4354
:101A48007B685B6A9B011A437B689B6A5B08013B66
:101A58001B041A437B68DB6A1B061B4913434B6054
:101A68001B4B01221A60FFF743FB386108E0FFF7C0
:101A78003FFB02463B69D31A022B01D903235CE0E2
:101A8800114B1B6803F00073002BF0D054E0104B8F
:101A980000221A60FFF72CFB386108E0FFF728FBEB
:101AA80002463B69D31A022B01D9032345E0064BB2
:101AB8001B6803F00073002BF0D13DE07B689B6945
:101AC800012B07D1012338E00038024000700040A4
:101AD800600047421B4B5B68FB607B689B69012B7E
:101AE80028D0FB6803F480027B68DB699A4221D125
:101AF800FB6803F03F027B681B6A9A421AD1FA68B6
:101B080047F6C07313407A68526A9201934211D122
:101B1800FB6803F440327B689B6A5B08013B1B044B
:101B28009A4207D1FB6803F070627B68DB6A1B0688
:101B38009A4201D0012300E0002318461837BD4619
:101B480080BD00BF0038024080B584B000AF786027
:101B580039607B68002B01D10123CCE0684B1B68FE
:101B680003F007033A689A420CD9654B3A68D2B237
:101B78001A70634B1B6803F007033A689A4201D056
:101B88000123B8E07B681B6803F00203002B20D018
:101B98007B681B6803F00403002B05D0594B9B6836
:101BA800584A43F4E05393607B681B6803F00803CA
:101BB800002B05D0534B9B68524A43F46043936013
:101BC800504B9B6823F0F0027B689B684D49134398
:101BD8008B607B681B6803F00103002B44D07B6893
:101BE8005B68012B07D1474B1B6803F40033002BBC
:101BF80019D101237FE07B685B68022B03D07B68E7
:101C08005B68032B07D13F4B1B6803F00073002B65
:101C180009D101236FE03B4B1B6803F00203002B43
:101C280001D1012367E0374B9B6823F003027B68EF
:101C38005B68344913438B60FFF75AFAF8600AE08F
:101C4800FFF756FA0246FB68D31A41F288329342EC
:101C580001D903234FE02B4B9B6803F00C027B68F0
:101C68005B689B009A42EBD1254B1B6803F0070386
:101C78003A689A420CD2224B3A68D2B21A70204B78
:101C88001B6803F007033A689A4201D0012332E047
:101C98007B681B6803F00403002B08D0194B9B6872
:101CA80023F4E0527B68DB68164913438B607B683A
:101CB8001B6803F00803002B09D0124B9B6823F420
:101CC80060427B681B69DB000E4913438B6000F0A0
:101CD80021F802460B4B9B681B0903F00F030A49C6
:101CE800CB5C22FA03F3094A1360094B1B681846B8
:101CF800FFF7BAF9002318461037BD4680BD00BF6C
:101D0800003C024000380240C420000800000020C7
:101D1800040000202DE9B04F90B000AF00237B6392
:101D28000023FB6300233B630023BB63584B9B6882
:101D380003F00C03082B0DD0082B00F2A080002B19
:101D480002D0042B03D09AE0524BBB639AE0524B6B
:101D5800BB6397E04E4B5B6803F03F037B634C4BE0
:101D68005B6803F48003002B27D0494B5B689B0911
:101D780000223B627A623B6AC3F308000021464BAB
:101D880003FB01F2002300FB03F31344424AA0FBC8
:101D98000221F962BA62FA6A1344FB627B6B002281
:101DA800BB61FA61D7E90623D7E90A01FEF710FA01
:101DB80002460B461346FB6353E0354B5B689B09B1
:101DC80000223B617A613B69C3F3080A4FF0000BBC
:101DD80052465B464FF000004FF00001590141EABE
:101DE800D261500102460B46B2EB0A0863EB0B09BD
:101DF8004FF000024FF000034FEA891343EA98635B
:101E08004FEA8812B2EB080463EB09054FF00002B1
:101E18004FF00003EB0043EA5473E20014461D46FA
:101E280014EB0A033B6045EB0B037B604FF00002A9
:101E38004FF00003D7E9004529468B02214643EAC3
:101E4800915321468A02104619467B6B0022BB60DB
:101E5800FA60D7E90223FEF7BBF902460B461346A0
:101E6800FB630B4B5B681B0C03F0030301335B0044
:101E78003B63FA6B3B6BB2FBF3F3BB6302E0054BCE
:101E8800BB6300BFBB6B18464037BD46BDE8B08F8B
:101E9800003802400024F40040787D0180B582B00B
:101EA80000AF78607B68002B01D101237BE07B6861
:101EB8005B6A002B08D17B685B68B3F5827F09D029
:101EC8007B680022DA6105E07B6800221A617B6882
:101ED80000225A617B6800229A627B6893F851302D
:101EE800DBB2002B06D17B68002283F8502078688B
:101EF800FEF7D0FD7B68022283F851207B681B68BF
:101F08001A687B681B6822F040021A607B685B686D
:101F180003F482727B689B6803F404431A437B686A
:101F2800DB6803F400631A437B681B6903F0020350
:101F38001A437B685B6903F001031A437B689B695A
:101F480003F400731A437B68DB6903F038031A4310
:101F58007B681B6A03F0800342EA03017B689B6A83
:101F680003F400527B681B680A431A607B689B690C
:101F78001B0C03F004017B685B6A03F010027B68AA
:101F88001B680A435A607B681B68DA697B681B68B0
:101F980022F40062DA617B6800225A657B680122BC
:101FA80083F85120002318460837BD4680BD0244F7
:101FB8000346934200D1704703F8011BF9E700007C
:101FC80070B50D4B0D4D5B1B9C100026A64209D128
:101FD80000F01AF80A4D0B4B5B1B9C100026A6421A
:101FE80005D170BD55F8043B98470136EEE755F822
:101FF800043B98470136F2E7DC200008DC200008A3
:10200800DC200008E0200008F8B500BFF8BC08BCD8
:102018009E467047F8B500BFF8BC08BC9E4670479E
:102028005541525420776F726B696E67210D0A0013
:1020380049324320696E697469616C697A65642103
:102048000D0A0000493243204275733A2042555325
:10205800590D0A00493243204275733A20465245C9
:10206800450D0A0053544152543A204F4B0D0A0073
:10207800416464726573733A2041434B207265630F
:102088006569766564210D0A000000004164647288
:102098006573733A204E41434B206F72206572720C
:1020A8006F72210D0A00000053544152543A2046E1
:1020B80041494C4544210D0A000000000000000081
:0C20C800000000000102030406070809E4
:0820D40034E1FF7F0100000070
:0420DC00BD0100083A
:0420E000990100085A
:0C20E4000024F4001000000001000000C7
:0400000508000FD907
:00000001FF
