:020000040800F2
:10000000000002206D240008F91C0008011D0008F2
:10001000091D0008111D0008191D0008000000003E
:10002000000000000000000000000000211D00088A
:100030002F1D0008000000003D1D00084B1D00089A
:10004000BD240008BD240008BD240008BD2400080C
:10005000BD240008BD240008BD240008BD240008FC
:10006000BD240008BD240008BD240008BD240008EC
:10007000BD240008BD240008BD240008BD240008DC
:10008000BD240008BD240008BD24000800000000B5
:10009000000000000000000000000000BD24000877
:1000A000BD240008BD240008BD240008BD240008AC
:1000B00021200008BD240008BD240008BD2400083C
:1000C000BD240008BD240008BD240008BD2400088C
:1000D000BD240008E5230008BD240008000000003E
:1000E000BD240008BD240008BD2400080000000055
:1000F000000000000000000000000000BD24000817
:1001000000000000BD240008BD240008BD24000834
:1001100000000000000000000000000000000000DF
:10012000BD240008BD240008BD240008BD2400082B
:10013000BD240008000000000000000000000000D6
:10014000000000000000000000000000BD240008C6
:10015000BD240008BD240008BD240008BD240008FB
:10016000BD240008BD2400080000000000000000BD
:10017000000000000000000000000000000000007F
:1001800000000000BD240008000000000000000086
:08019000BD240008BD24000895
:1001A00010B5054C237833B9044B13B10448AFF3B1
:1001B00000800123237010BDD40100200000000046
:1001C000C460000808B5034B1BB103490348AFF3F3
:1001D000008008BD00000000D8010020C4600008B5
:1001E00001F0FF01102A2BDB10F0070F08D010F8E8
:1001F000013B013A8B422DD010F0070F42B3F6D1EC
:10020000F0B441EA012141EA014122F007047FF004
:1002100000070023F0E80256083C85EA010586EA5B
:10022000010685FA47F5A3FA87F586FA47F6A5FA97
:1002300087F68EB9EED1F0BC01F0FF0102F00702A3
:1002400032B110F8013B013A83EA010313B1F8D14E
:100250000020704701387047002D06BF354603382F
:10026000073815F0010F07D1013015F4807F02BF68
:10027000013015F4C03F0130F0BC0138704700BFB9
:10028000034613F8012B002AFBD1181A01387047D6
:1002900081F0004102E000BF83F0004330B54FEA37
:1002A00041044FEA430594EA050F08BF90EA020FA4
:1002B0001FBF54EA000C55EA020C7FEA645C7FEA37
:1002C000655C00F0E2804FEA5454D4EB5555B8BF5A
:1002D0006D420CDD2C4480EA020281EA030382EACB
:1002E000000083EA010180EA020281EA0303362D5D
:1002F00088BF30BD11F0004F4FEA01314FF4801C30
:100300004CEA113102D0404261EB410113F0004F41
:100310004FEA03334CEA133302D0524263EB4303F8
:1003200094EA050F00F0A780A4F10104D5F1200E96
:100330000DDB02FA0EFC22FA05F2801841F10001F1
:1003400003FA0EF2801843FA05F359410EE0A5F1C5
:1003500020050EF1200E012A03FA0EFC28BF4CF0F6
:10036000020C43FA05F3C01851EBE37101F00045AC
:1003700007D54FF0000EDCF1000C7EEB00006EEBB9
:100380000101B1F5801F1BD3B1F5001F0CD3490843
:100390005FEA30004FEA3C0C04F101044FEA44529A
:1003A00012F5800F80F09A80BCF1004F08BF5FEA21
:1003B000500C50F1000041EB045141EA050130BD01
:1003C0005FEA4C0C404141EB0101013C28BFB1F513
:1003D000801FE9D291F0000F04BF01460020B1FA5E
:1003E00081F308BF2033A3F10B03B3F120020CDA31
:1003F0000C3208DD02F1140CC2F10C0201FA0CF00F
:1004000021FA02F10CE002F11402D8BFC2F1200C73
:1004100001FA02F120FA0CFCDCBF41EA0C01904029
:10042000E41AA2BF01EB0451294330BD6FEA040472
:100430001F3C1CDA0C340EDC04F11404C4F120025D
:1004400020FA04F001FA02F340EA030021FA04F36F
:1004500045EA030130BDC4F10C04C4F1200220FAC6
:1004600002F001FA04F340EA0300294630BD21FA04
:1004700004F0294630BD94F0000F83F4801306BFCA
:1004800081F480110134013D4EE77FEA645C18BFBE
:100490007FEA655C29D094EA050F08BF90EA020F55
:1004A00005D054EA000C04BF1946104630BD91EA4D
:1004B000030F1EBF0021002030BD5FEA545C05D150
:1004C0004000494128BF41F0004130BD14F580048F
:1004D0003CBF01F5801130BD01F0004545F0FE4103
:1004E00041F470014FF0000030BD7FEA645C1ABF38
:1004F000194610467FEA655C1CBF0B46024650EA6F
:10050000013406BF52EA033591EA030F41F400219A
:1005100030BD00BF90F0000F04BF0021704730B520
:100520004FF4806404F132044FF000054FF00001F5
:1005300050E700BF90F0000F04BF0021704730B5B6
:100540004FF4806404F1320410F0004548BF40428B
:100550004FF000013EE700BF42004FEAE2014FEAE0
:1005600031014FEA02701FBF12F07F4393F07F4FBB
:1005700081F06051704732F07F4208BF704793F0BE
:100580007F4F04BF41F40021704730B54FF46074D1
:1005900001F0004521F000411CE700BF50EA0102D4
:1005A00008BF704730B54FF000050AE050EA01027D
:1005B00008BF704730B511F0004502D5404261EBED
:1005C00041014FF4806404F132045FEA915C3FF42E
:1005D000D8AE4FF003025FEADC0C18BF03325FEACB
:1005E000DC0C18BF033202EBDC02C2F1200300FA7C
:1005F00003FC20FA02F001FA03FE40EA0E0021FAA1
:1006000002F11444BDE600BF70B54FF0FF0C4CF48E
:10061000E06C1CEA11541DBF1CEA135594EA0C0F40
:1006200095EA0C0F00F0DEF82C4481EA030621EA7B
:100630004C5123EA4C5350EA013518BF52EA0335B6
:1006400041F4801143F4801338D0A0FB02CE4FF068
:100650000005E1FB02E506F00042E0FB03E54FF098
:100660000006E1FB03569CF0000F18BF4EF0010E90
:10067000A4F1FF04B6F5007F64F5407404D25FEA8C
:100680004E0E6D4146EB060642EAC62141EA55513F
:100690004FEAC52040EA5E504FEACE2EB4F1FD0C81
:1006A00088BFBCF5E06F1ED8BEF1004F08BF5FEAFF
:1006B000500E50F1000041EB045170BD06F00046B1
:1006C00046EA010140EA020081EA0301B4EB5C045E
:1006D000C2BFD4EB0C0541EA045170BD41F4801156
:1006E0004FF0000E013C00F3AB8014F1360FDEBF7B
:1006F000002001F0004170BDC4F10004203C35DA57
:100700000C341BDC04F11404C4F1200500FA05F3D9
:1007100020FA04F001FA05F240EA020001F000427A
:1007200021F0004110EBD37021FA04F642EB0601F0
:100730005EEA430E08BF20EAD37070BDC4F10C041A
:10074000C4F1200500FA04F320FA05F001FA04F2DE
:1007500040EA020001F0004110EBD37041F10001CA
:100760005EEA430E08BF20EAD37070BDC4F12005D5
:1007700000FA05F24EEA020E20FA04F301FA05F23D
:1007800043EA020321FA04F001F0004121FA04F2E5
:1007900020EA020000EBD3705EEA430E08BF20EAB5
:1007A000D37070BD94F0000F0FD101F000464000EF
:1007B00041EB010111F4801F08BF013CF7D041EA71
:1007C000060195F0000F18BF704703F00046520075
:1007D00043EB030313F4801F08BF013DF7D043EA46
:1007E0000603704794EA0C0F0CEA135518BF95EAFC
:1007F0000C0F0CD050EA410618BF52EA4306D1D183
:1008000081EA030101F000414FF0000070BD50EAA1
:10081000410606BF1046194652EA430619D094EA2B
:100820000C0F02D150EA013613D195EA0C0F05D115
:1008300052EA03361CBF104619460AD181EA030169
:1008400001F0004141F0FE4141F470014FF0000021
:1008500070BD41F0FE4141F4780170BD70B54FF0BC
:10086000FF0C4CF4E06C1CEA11541DBF1CEA13553C
:1008700094EA0C0F95EA0C0F00F0A7F8A4EB05041E
:1008800081EA030E52EA03354FEA013100F0888015
:100890004FEA03334FF0805545EA131343EA1263DE
:1008A0004FEA022245EA111545EA10654FEA002693
:1008B0000EF000419D4208BF964244F1FD0404F54C
:1008C000407402D25B084FEA3202B61A65EB0305A8
:1008D0005B084FEA32024FF480104FF4002CB6EB65
:1008E000020E75EB030E22BFB61A754640EA0C00E5
:1008F0005B084FEA3202B6EB020E75EB030E22BF25
:10090000B61A754640EA5C005B084FEA3202B6EB65
:10091000020E75EB030E22BFB61A754640EA9C0024
:100920005B084FEA3202B6EB020E75EB030E22BFF4
:10093000B61A754640EADC0055EA060E18D04FEAB2
:10094000051545EA16754FEA06164FEAC30343EA52
:1009500052734FEAC2025FEA1C1CC0D111F4801F1F
:100960000BD141EA00014FF000004FF0004CB6E718
:1009700011F4801F04BF01430020B4F1FD0C88BFB7
:10098000BCF5E06F3FF6AFAEB5EB030C04BFB6EBC2
:10099000020C5FEA500C50F1000041EB045170BDB5
:1009A0000EF0004E4EEA113114EB5C04C2BFD4EBE2
:1009B0000C0541EA045170BD41F480114FF0000E66
:1009C000013C90E645EA060E8DE60CEA135594EAE2
:1009D0000C0F08BF95EA0C0F3FF43BAF94EA0C0FE5
:1009E0000AD150EA01347FF434AF95EA0C0F7FF45A
:1009F00025AF104619462CE795EA0C0F06D152EAAE
:100A000003353FF4FDAE1046194622E750EA410691
:100A100018BF52EA43067FF4C5AE50EA41047FF4A2
:100A20000DAF52EA43057FF4EBAE12E74FF0FF3C07
:100A300006E000BF4FF0010C02E000BF4FF0010CD8
:100A40004DF804CD4FEA410C7FEA6C5C4FEA430C51
:100A500018BF7FEA6C5C1BD001B050EA410C0CBFA0
:100A600052EA430C91EA030F02BF90EA020F002002
:100A7000704710F1000F91EA030F58BF994208BF69
:100A800090422CBFD8176FEAE37040F00100704726
:100A90004FEA410C7FEA6C5C02D150EA013C07D17D
:100AA0004FEA430C7FEA6C5CD6D152EA033CD3D0C8
:100AB0005DF8040B704700BF8446104662468C46C2
:100AC0001946634600E000BF01B5FFF7B7FF0028F5
:100AD00048BF10F1000F01BD4DF808EDFFF7F4FF1E
:100AE0000CBF012000205DF808FB00BF4DF808EDA9
:100AF000FFF7EAFF34BF012000205DF808FB00BFCC
:100B00004DF808EDFFF7E0FF94BF012000205DF8ED
:100B100008FB00BF4DF808EDFFF7CEFF94BF0120A2
:100B200000205DF808FB00BF4DF808EDFFF7C4FF9B
:100B300034BF012000205DF808FB00BF4FEA410CE4
:100B40007FEA6C5C02D150EA013C0AD14FEA430CC7
:100B50007FEA6C5C02D152EA033C02D14FF0000004
:100B600070474FF0010070474FEA410212F5001242
:100B700015D211D56FF47873B3EB625212D94FEAE4
:100B8000C12343F0004343EA505311F0004F23FACE
:100B900002F018BF404270474FF00000704750EA23
:100BA000013005D111F0004008BF6FF000407047E0
:100BB0004FF00000704700BF53B94AB9002908BF81
:100BC00000281CBF4FF0FF314FF0FF3000F088B914
:100BD000ADF1080C6DE904CE00F006F8DDF804E094
:100BE000DDE9022304B070472DE9F047089D0F4668
:100BF00004468C46002B48D18A42164661D9B2FA87
:100C000082F34BB1C3F1200201FA03FC20FA02F295
:100C10009E4042EA0C0C9C404FEA164EB7B2BCFB19
:100C2000FEF1220C0EFB11CC42EA0C4201FB07F054
:100C3000904209D9B21801F1FF3C80F0EE80904259
:100C400040F2EB8002393244121AA4B2B2FBFEF039
:100C50000EFB102244EA024400FB07F7A74209D921
:100C6000341900F1FF3280F0DA80A74240F2D780D9
:100C70003444023840EA0140E41B00211DB1DC404D
:100C80000023C5E90043BDE8F0878B4206D90DB1CA
:100C9000C5E9000100210846BDE8F087B3FA83F1F9
:100CA000002948D1BB4202D3824200F20781841A54
:100CB00067EB030201209446002DE4D0C5E9004C07
:100CC000E1E7002A00F09280B2FA82F3002B40F0B4
:100CD000A8808A1A4FEA164E1FFA86FC0121200CC2
:100CE000B2FBFEF70EFB172240EA02420CFB07F0B4
:100CF000904207D9B21807F1FF3802D2904200F2B1
:100D0000E2804746121AA4B2B2FBFEF00EFB10229C
:100D100044EA02440CFB00FCA44507D9341900F155
:100D2000FF3202D2A44500F2CB801046A4EB0C04A3
:100D300040EA0740A2E7C1F120068B4022FA06FCF8
:100D40004CEA030C07FA01F420FA06F3F7404FEAE5
:100D50001C49234300FA01F81FFA8CFEB7FBF9F097
:100D60001C0C09FB107744EA074400FB0EF7A7426E
:100D700002FA01F20AD91CEB040400F1FF3A80F0F8
:100D80009B80A74240F2988002386444E41B9FB2E3
:100D9000B4FBF9F309FB134447EA044403FB0EFEDA
:100DA000A64509D91CEB040403F1FF3780F08280CB
:100DB000A6457FD9023B644443EA0040A4EB0E04FD
:100DC000A0FB02E7BC427346B94663D360D05DB175
:100DD000B8EB030264EB090404FA06F622FA01F305
:100DE0001E43CC40C5E9006400214CE76208480876
:100DF00042EAC1710B0C43EA00438AB242EA034261
:100E0000B3FBF6F1E407B4463746B6461F23B0FB02
:100E1000F6F0D21B41EA004161E7614614E7104653
:100E200028E7C3F1200120FA01F29E4027FA01F1E0
:100E30009F403A434FEA164E1FFA86FCB1FBFEF77D
:100E40000EFB1710110C41EA004107FB0CF8884516
:100E500004FA03F43AD9711807F1FF3001D288453A
:100E60001FD8A1EB0801B1FBFEF808FB0CF70EFB45
:100E7000181192B242EA0142BA422FD2B21808F1D6
:100E8000FF31C6D2BA42C4D2A8F102013244C0E74F
:100E9000F0459CD2BEEB020367EB0C070138B94664
:100EA00095E7A6EB08084144B81EB1FBFEF808FB25
:100EB0000CF7DCE73B467FE7504667E70846FBE672
:100EC0003444023832E7023F32441BE7A1EB080109
:100ED0003846B1FBFEF808FB0CF7C8E7414698E737
:100EE000704700BF80B400AF0B4BDB680A4A43F089
:100EF0008073D360094B00225A60084B1B68074A75
:100F000043F001031360064B00221A6000BFBD4688
:100F10005DF8047B704700BFF0ED00E0001000E0DA
:100F2000F001002080B400AF114B1B6B104A43F05E
:100F3000010313630F4B1B680E4A23F440631360D5
:100F40000C4B1B680B4A43F480631360094B5B68CE
:100F5000084A23F020035360064B9B68054A43F47C
:100F60004063936000BFBD465DF8047B704700BFDF
:100F7000003802400000024080B400AF294B1B6BD8
:100F8000284A43F002031363264B1B6C254A43F4A3
:100F900000131364244B1B68234A23F4704313602B
:100FA000214B1B68204A43F4204313601E4B5B68AF
:100FB0001D4A43F0C00353601B4B9B681A4A43F41D
:100FC00070439360184BDB68174A23F47043D36077
:100FD000154B1B6A144A23F07F431362124B1B6AA2
:100FE000114A43F088431362104B1B680F4A23F0E9
:100FF000010313600D4B32225A600C4BFA22DA6166
:101000000A4B33221A62094B4FF480621A60074B75
:101010001B68064A43F00103136000BFBD465DF83C
:10102000047B704700380240000402400054004036
:1010300080B483B000AF44F620637B6007E07B6838
:10104000013B7B607B68002B01D101231EE0124B2A
:101050009B6903F00203002BF1D10F4B1B680E4A72
:1010600043F48073136044F620637B6007E07B6881
:10107000013B7B607B68002B01D1022306E0064B1D
:101080005B6903F00103002BF1D0002318460C37F5
:10109000BD465DF8047B70470054004080B483B0C7
:1010A00000AF0F4B1B680E4A43F40073136044F605
:1010B00020637B6005E07B68013B7B607B68002BE5
:1010C00006D0074B9B6903F00203002BF3D100E02D
:1010D00000BF00BF0C37BD465DF8047B704700BF02
:1010E0000054004080B485B000AF03460A46FB714F
:1010F0001346BB7144F62063FB601F4B5B691E4ABD
:1011000023F480635361FB795B00DAB2BB7903F0AF
:101110000103DBB21343DAB2174B1A611BE0164B23
:101120005B6903F48063002B07D0134B1B68124AE2
:1011300043F400731360032318E0FB68013BFB607A
:10114000FB68002B07D10C4B1B680B4A43F4007360
:10115000136004230AE0084B5B6903F00203002BD1
:10116000DDD0054B5B69044B9B690023184614379F
:10117000BD465DF8047B70470054004080B485B0E4
:1011800000AF0346FB7144F62063FB601BE0164B87
:101190005B6903F48063002B07D0134B1B68124A72
:1011A00043F400731360032317E0FB68013BFB600B
:1011B000FB68002B07D10C4B1B680B4A43F40073F0
:1011C0001360042309E0084B5B6903F08003002BE4
:1011D000DDD0054AFB791361002318461437BD465C
:1011E0005DF8047B704700BF0054004080B584B0B8
:1011F00000AF0346FB71FB791846FFF7BFFF0346BC
:10120000FB72FB7A002B01D0FB7A26E044F62063C8
:10121000FB601BE0134B5B6903F48063002B07D07A
:10122000104B1B680F4A43F400731360032314E050
:10123000FB68013BFB60FB68002B07D1094B1B6877
:10124000084A43F400731360042306E0054B5B690E
:1012500003F00403002BDDD0002318461037BD46F1
:1012600080BD00BF0054004080B584B000AF3A603C
:101270001A460346FB710B46BB7113467B717B79A3
:10128000002B02D03B68002B01D104231CE1FFF7A7
:10129000CFFE0346BB72BB7A002B01D0BB7A13E1B1
:1012A000FB7900211846FFF71DFF0346BB72BB7A8E
:1012B000002B01D0BB7A07E1BB791846FFF796FFF8
:1012C0000346BB72BB7A002B01D0BB7AFCE000F076
:1012D00001F90346BB72BB7A002B01D0BB7AF3E065
:1012E000FB7901211846FFF7FDFE0346BB72BB7A6E
:1012F000002B01D0BB7AE7E07B79012B05D9744B39
:101300001B68734A43F4806313607B79012B23D1FC
:101310006F4B1B686E4A23F4806313606C4B1B6831
:101320006B4A43F40073136044F62063FB6007E0EC
:10133000FB68013BFB60FB68002B01D10423C3E089
:10134000634B5B6903F04003002BF1D0604B1B69DA
:10135000DAB23B681A70B6E07B79022B35D15C4B70
:101360001B685B4A43F400631360594B1B68584A7F
:1013700023F48063136044F62063FB6007E0FB689E
:10138000013BFB60FB68002B01D104239CE0504B28
:101390005B6903F00403002BF1D04D4B1B684C4AF2
:1013A00043F4007313604A4B1B69DAB23B681A704E
:1013B000474B1A693B680133D2B21A70444B1B6821
:1013C000434A23F4006313607DE00023FB721BE0BB
:1013D00044F62063FB6007E0FB68013BFB60FB68B1
:1013E000002B01D104236FE0394B5B6903F040030C
:1013F000002BF1D0364B1969FB7A3A681344CAB214
:101400001A70FB7A0133FB72FA7A7B79033B9A42BA
:10141000DED344F62063FB6007E0FB68013BFB6022
:10142000FB68002B01D104234EE0294B5B6903F0DC
:101430000403002BF1D0264B1B68254A23F480635C
:101440001360234B19697B79033B3A681344CAB292
:101450001A7044F62063FB6007E0FB68013BFB6009
:10146000FB68002B01D104232EE0194B5B6903F0CC
:101470004003002BF1D0164B19697B79023B3A6887
:101480001344CAB21A70124B1B68114A43F400731A
:10149000136044F62063FB6007E0FB68013BFB60E0
:1014A000FB68002B01D104230EE0094B5B6903F0BC
:1014B0004003002BF1D0064B19697B79013B3A6858
:1014C0001344CAB21A70002318461037BD4680BDB7
:1014D0000054004080B483B000AF44F620637B60CA
:1014E0000D4B1B680C4A43F48073136007E07B6864
:1014F000013B7B607B68002B01D1022306E0064B99
:101500005B6903F00103002BF1D0002318460C3770
:10151000BD465DF8047B7047005400402DE9B043A0
:101520009EB004AF00F0CCFF00F082F800F054F958
:1015300000F0E6F800F01AF900F0D8FDFFF71CFD06
:10154000FFF7D0FC00F028FD00F00CFAFFF7EAFCF2
:1015500000F056FA0346002B57D100F0ADFA2F4B9E
:101560001B681846FEF7F8FF804689462B4B5B68E0
:101570001846FEF7F1FF04460D46284B9B681846B7
:10158000FEF7EAFF02460B46381DCDE90223CDE9FE
:10159000004542464B46224902F052FC3B1D18468C
:1015A00000F00AFF1D4B1B691846FEF7D5FF804669
:1015B00089461A4B5B691846FEF7CEFF04460D4676
:1015C000164B9B691846FEF7C7FF02460B46381DAF
:1015D000CDE90223CDE9004542464B46114902F0D0
:1015E0002FFC3B1D184600F0E7FE0C4BDB6818464D
:1015F000FEF7B2FF02460B46381D0B4902F020FCF5
:101600003B1D184600F0D8FE02E0084800F0D4FE6A
:101610004FF47A7000F036FD9AE700BFB402002064
:10162000E0600008006100082461000838610008DB
:1016300080B594B000AF07F1200330220021184696
:1016400002F064FC07F10C0300221A605A609A60F1
:10165000DA601A610023BB60274B1B6C264A43F0FB
:1016600080531364244B1B6C03F08053BB60BB6836
:1016700000237B60214B1B68204A43F440431360E6
:101680001E4B1B6803F440437B607B6801233B6275
:101690004FF480337B620223BB634FF48003FB6310
:1016A0000C233B6460237B640223BB640423FB6440
:1016B00007F12003184601F0F9F90346002B01D089
:1016C00000F0F2F80F23FB6002233B6100237B61F3
:1016D0004FF48053BB610023FB6107F10C0303212E
:1016E000184601F05BFC0346002B01D000F0DCF84B
:1016F00000BF5037BD4680BD00380240007000403A
:1017000080B500AF174B184A1A60164B4FF482721F
:101710005A60144B00229A60124B0022DA60114B7F
:1017200000221A610F4B00225A610E4B4FF40072D7
:101730009A610C4B1822DA610A4B00221A62094B9B
:1017400000225A62074B00229A62064B0A22DA6292
:10175000044801F0CDFD0346002B01D000F0A4F8B1
:1017600000BF80BDF40100200030014080B500AF13
:10177000174B184A1A60164B4FF482725A60144B7A
:1017800000229A60124B0022DA60114B00221A618B
:101790000F4B00225A610E4B4FF400729A610C4BB2
:1017A0002022DA610A4B00221A62094B00225A6297
:1017B000074B00229A62064B0A22DA62044801F0C3
:1017C00097FD0346002B01D000F06EF800BF80BDEE
:1017D0004C0200200038004080B588B000AF07F10F
:1017E0000C0300221A605A609A60DA601A610023C2
:1017F000BB602A4B1B6B294A43F080031363274BC2
:101800001B6B03F08003BB60BB6800237B60234B32
:101810001B6B224A43F001031363204B1B6B03F045
:1018200001037B607B6800233B601C4B1B6B1B4AE6
:1018300043F002031363194B1B6B03F002033B607D
:101840003B6801221821164801F016F901224FF4D5
:101850008051144801F010F91823FB6001233B610B
:1018600000237B610223BB6107F10C0319460C487E
:1018700000F07EFF4FF48053FB6001233B610023A7
:101880007B610223BB6107F10C031946054800F098
:101890006FFF00BF2037BD4680BD00BF003802404B
:1018A000000002400004024080B400AF72B600BFE6
:1018B00000BFFDE780B584B000AF03460A46FB7168
:1018C0001346BB71FFF7B4FB0346FB73FB7B002B96
:1018D00003D0FFF7E3FB012329E000216920FFF794
:1018E00001FC0346FB73FB7B002B03D0FFF7D6FB09
:1018F00001231CE0FB791846FFF778FC0346FB73D5
:10190000FB7B002B03D0FFF7C9FB01230FE0BB7962
:101910001846FFF76BFC0346FB73FB7B002B03D0E1
:10192000FFF7BCFB012302E0FFF7B8FB00231846DA
:101930001037BD4680BD80B582B000AF0346396028
:10194000FB71F97901233A686920FFF78DFC0346A2
:10195000002B01D0012300E0002318460837BD46C4
:1019600080BD000080B582B000AFFB1D1946752018
:10197000FFF7E1FF0346002B04D0124800F01CFDE6
:1019800001231AE0FB79682B07D0FB79692B04D07F
:101990000D4800F011FD01230FE000216B20FFF73F
:1019A00089FF0346002B04D0084800F005FD012301
:1019B00003E00A2000F066FB002318460837BD4606
:1019C00080BD00BF506100086C61000880610008A4
:1019D00080B582B000AF03463960FB711346BB711E
:1019E000BB79F9793A686920FFF73EFC0346002B82
:1019F00001D0012300E0002318460837BD4680BD12
:101A000080B584B000AF3B460E2219463B20FFF75D
:101A1000DFFF0346002B01D0012346E03B781BB2D9
:101A20001B021AB27B781BB213431AB2214B1A80E5
:101A3000BB781BB21B021AB2FB781BB213431AB25B
:101A40001C4B5A803B791BB21B021AB27B791BB22A
:101A500013431AB2174B9A80BB791BB21B021AB2FE
:101A6000FB791BB213431AB2124BDA803B7A1BB2DA
:101A70001B021AB27B7A1BB213431AB20D4B1A81A6
:101A8000BB7A1BB21B021AB2FB7A1BB213431AB207
:101A9000084B5A813B7B1BB21B021AB27B7B1BB2E9
:101AA00013431AB2034B9A81002318461037BD46E0
:101AB00080BD00BFA402002080B400AF354B1B885E
:101AC0001BB207EE903AB8EEE77ADFED336AC7EE65
:101AD000267A324BC3ED007A2E4B5B881BB207EEA1
:101AE000903AB8EEE77ADFED2C6AC7EE267A2B4BF8
:101AF000C3ED017A274B9B881BB207EE903AB8EEF4
:101B0000E77ADFED256AC7EE267A244BC3ED027A29
:101B1000204B1B891BB207EE903AB8EEE77ADFED57
:101B2000206AC7EE267A1D4BC3ED047A194B5B89F8
:101B30001BB207EE903AB8EEE77ADFED196AC7EE0E
:101B4000267A164BC3ED057A124B9B891BB207EE22
:101B5000903AB8EEE77ADFED126AC7EE267A0F4BBD
:101B6000C3ED067A0B4BDB881BB207EE903AB8EE5A
:101B7000E77ADFED0C6AC7EE267A9FED0B7A77EEF7
:101B8000877A064BC3ED037A00BFBD465DF8047B40
:101B9000704700BFA402002000008046B40200206D
:101BA000000003430000AA43B81E124280B483B071
:101BB00000AF00237B60104B5B6C0F4A43F4804303
:101BC00053640D4B5B6C03F480437B607B680023A4
:101BD0003B60094B1B6C084A43F080531364064B6F
:101BE0001B6C03F080533B603B6800BF0C37BD4665
:101BF0005DF8047B704700BF0038024080B58CB0B0
:101C000000AF786007F11C0300221A605A609A60E6
:101C1000DA601A617B681B68324A93422CD1002338
:101C2000BB61314B5B6C304A43F4805353642E4BA1
:101C30005B6C03F48053BB61BB6900237B612A4B5F
:101C40001B6B294A43F001031363274B1B6B03F003
:101C500001037B617B69E023FB6102233B6200237C
:101C60007B620323BB620523FB6207F11C03194659
:101C70001E4800F07DFD31E07B681B681C4A9342E2
:101C80002CD100233B61184B1B6C174A43F4804353
:101C90001364154B1B6C03F480433B613B690023C9
:101CA000FB60114B1B6B104A43F0020313630E4B96
:101CB0001B6B03F00203FB60FB684FF46043FB61A6
:101CC00002233B6200237B620323BB620523FB628A
:101CD00007F11C031946074800F04AFD00BF3037E2
:101CE000BD4680BD00300140003802400000024087
:101CF000003800400004024080B400AF00BFFDE7A0
:101D000080B400AF00BFFDE780B400AF00BFFDE7C7
:101D100080B400AF00BFFDE780B400AF00BFFDE7B7
:101D200080B400AF00BFBD465DF8047B704780B44F
:101D300000AF00BFBD465DF8047B704780B400AFC4
:101D400000BFBD465DF8047B704780B500AF00F072
:101D500009FC00BF80BD80B400AF01231846BD461A
:101D60005DF8047B704780B582B000AF7860396061
:101D700002F01EF9034616221A604FF0FF33184690
:101D80000837BD4680BD80B582B000AF78604FF0A7
:101D9000FF317868FFF7E7FF00BFFDE780B586B049
:101DA00000AFF860B9607A6000237B610AE0AFF3AE
:101DB00000800146BB685A1CBA60CAB21A707B69BF
:101DC00001337B617A697B689A42F0DB7B68184655
:101DD0001837BD4680BD80B586B000AFF860B960E9
:101DE0007A6000237B6109E0BB685A1CBA601B78EB
:101DF0001846AFF300807B6901337B617A697B68A9
:101E00009A42F1DB7B6818461837BD4680BD80B426
:101E100083B000AF78604FF0FF3318460C37BD46F3
:101E20005DF8047B704780B483B000AF78603960A0
:101E30003B684FF400525A60002318460C37BD46E9
:101E40005DF8047B704780B483B000AF78600123F5
:101E500018460C37BD465DF8047B704780B485B0EA
:101E600000AFF860B9607A60002318461437BD46A9
:101E70005DF8047B7047000080B586B000AF7860E5
:101E8000144A154BD31A7B617B693B61134B1B686A
:101E9000002B02D1114B124A1A60104B1A687B6852
:101EA00013443A699A4207D202F082F803460C22A0
:101EB0001A604FF0FF3309E0084B1B68FB60074BCB
:101EC0001A687B681344054A1360FB681846183784
:101ED000BD4680BD0000022000040000D0020020AA
:101EE0004006002080B400AF064BD3F88830054A86
:101EF00043F47003C2F8883000BFBD465DF8047B30
:101F0000704700BF00ED00E080B483B000AF03462F
:101F1000FB7197F90730002B0BDBFB7903F01F02F5
:101F2000074997F907305B09012000FA02F241F8EE
:101F3000232000BF0C37BD465DF8047B704700BF0F
:101F400000E100E080B483B000AF03463960FB716C
:101F500097F90730002B0ADB3B68DAB20C4997F996
:101F600007301201D2B20B4483F800230AE03B6829
:101F7000DAB20849FB7903F00F03043B1201D2B235
:101F80000B441A7600BF0C37BD465DF8047B7047E2
:101F900000E100E000ED00E080B582B000AF1F4B33
:101FA0001B6C1E4A43F00103136400237B6002E0B4
:101FB0007B6801337B607B68092BF9DD4FF0804340
:101FC00063229A624FF0804340F2E732DA624FF0C8
:101FD000804300225A624FF080431B694FF08042D9
:101FE00023F0010313614FF08043DB684FF0804220
:101FF00043F00103D36001211C20FFF7A3FF1C2045
:10200000FFF782FF4FF080431B684FF0804243F0A0
:102010000103136000BF0837BD4680BD0038024091
:1020200080B400AF4FF080431B6903F00103002B25
:102030000CD04FF080431B694FF0804223F0010326
:102040001361054B1B680133034A136000BFBD4693
:102050005DF8047B704700BFD402002080B483B0D9
:1020600000AF72B600BF064B1B687B6062B600BF54
:102070007B6818460C37BD465DF8047B704700BF8F
:10208000D402002080B584B000AF7860FFF7E6FF8F
:10209000F86000BFFFF7E2FF0246FB68D31A7A68D8
:1020A0009A42F7D800BF00BF1037BD4680BD000080
:1020B00080B483B000AF0346FB7197F90730002B63
:1020C0000BDBFB7903F01F02074997F907305B0927
:1020D000012000FA02F241F8232000BF0C37BD4670
:1020E0005DF8047B704700BF00E100E080B500AF01
:1020F000404B1B6B3F4A43F0010313633D4B5B6C4A
:102100003C4A43F0100353643B4B1B683A4A23F4A8
:1021100040231360384B1B68374A43F40023136095
:10212000354B5B68344A23F400735360324B9B6831
:10213000314A43F4402393602F4BDB682E4A23F44B
:102140004023D3602C4BDB682B4A43F48023D360BD
:10215000294B5B6A284A23F0F0035362264B5B6AE3
:10216000254A43F070035362234B1B68224A23F431
:1021700040131360204B1B681F4A43F48013136005
:102180001D4BDB681C4A23F44013D3601A4BDB68F9
:10219000194A43F48013D360174B5B6A164A23F441
:1021A00070635362144B5B6A134A43F4E0635362F7
:1021B000124BDB68114A23F40053D3600F4B4FF4EA
:1021C00059729A600D4B00221A604FF480720C49CC
:1021D0000C4800F01DF84FF480720B490B4800F0DA
:1021E00017F8064B42F22C02DA602520FFF760FF59
:1021F00000BF80BD003802400000024000100140D6
:10220000D8020020D8040020D8030020E4040020D5
:1022100080B485B000AFF860B9601346FB80FB68FE
:10222000BA681A60FB68FA889A80FB680022DA8034
:10223000FB6800221A81FB6800225A8100BF143714
:10224000BD465DF8047B704780B483B000AF786012
:102250007B685B899BB2002B0CBF01230023DBB2A0
:1022600018460C37BD465DF8047B704780B483B0D8
:1022700000AF78607B685B899AB27B689B889BB271
:102280009A422CBF01230023DBB218460C37BD460F
:102290005DF8047B704780B582B000AF78600B4674
:1022A000FB7072B600BF7868FFF7E0FF0346002BB3
:1022B00003D062B600BF002320E07B681B687A6809
:1022C000D28892B21344FA781A707B68DB889BB28A
:1022D00001337A68928892B293FBF2F101FB02F229
:1022E0009B1A9AB27B68DA807B685B899BB2013368
:1022F0009AB27B685A8162B600BF0123184608373C
:10230000BD4680BD80B584B000AF78600023FB730C
:1023100072B600BF7868FFF797FF034683F00103AA
:10232000DBB2002B1DD07B681B687A68128992B2E1
:1023300013441B78FB737B681B899BB201337A685B
:10234000928892B293FBF2F101FB02F29B1A9AB2CD
:102350007B681A817B685B899BB2013B9AB27B6880
:102360005A8162B600BFFB7B18461037BD4680BD60
:1023700080B582B000AF0346FB7100BF0C48FFF789
:1023800075FF0346002BF9D172B600BFFB791946E1
:102390000748FFF780FF074BDB68064A43F08003DE
:1023A000D36062B600BF00BF0837BD4680BD00BF26
:1023B000E40400200010014080B582B000AF7860D6
:1023C00006E07B685A1C7A601B781846FFF7D0FF3E
:1023D0007B681B78002BF4D100BF00BF0837BD46D7
:1023E00080BD000080B582B000AF1D4B1B6803F0BC
:1023F0002003002B07D01A4B5B68FB71FB79194651
:102400001848FFF748FF164BDB6803F08003002BEA
:1024100021D0134B1B6803F08003002B1BD0124804
:10242000FFF712FF034683F00103DBB2002B06D057
:102430000D48FFF767FF03461A46094B5A600A48E2
:10244000FFF702FF0346002B05D0054BDB68044A6B
:1024500023F08003D36000BF0837BD4680BD00BFB6
:1024600000100140D8040020E4040020DFF834D03C
:10247000FFF738FD0C480D490D4A002302E0D458FF
:10248000C4500433C4188C42F9D30A4A0A4C0023BE
:1024900001E013600432A242FBD301F08FFDFFF78D
:1024A0003DF870470000022000000020D401002009
:1024B0002C650008D401002040060020FEE7000043
:1024C00080B500AF0E4B1B680D4A43F400731360D8
:1024D0000B4B1B680A4A43F480631360084B1B686C
:1024E000074A43F480731360032000F00DF90F20B6
:1024F00000F008F8FFF75AFB0023184680BD00BF24
:10250000003C024080B582B000AF7860124B1A6880
:10251000124B1B7819464FF47A73B3FBF1F3B2FBFD
:10252000F3F3184600F017F90346002B01D00123FE
:102530000EE07B680F2B0AD8002279684FF0FF303D
:1025400000F0EDF8064A7B681360002300E00123E9
:1025500018460837BD4680BD000000200800002056
:102560000400002080B400AF064B1B781A46064BCF
:102570001B681344044A136000BFBD465DF8047B2A
:10258000704700BF08000020F004002080B400AFB6
:10259000034B1B681846BD465DF8047B704700BFBF
:1025A000F004002080B485B000AF78607B6803F051
:1025B0000703FB600C4BDB68BB60BA684FF6FF0398
:1025C0001340BB60FB681A02BB68134343F0BF6350
:1025D00043F40033BB60044ABB68D36000BF1437C8
:1025E000BD465DF8047B704700ED00E080B400AFAD
:1025F000044BDB681B0A03F007031846BD465DF871
:10260000047B704700ED00E080B483B000AF034668
:102610003960FB7197F90730002B0ADB3B68DAB2AF
:102620000C4997F907301201D2B20B4483F800230A
:102630000AE03B68DAB20849FB7903F00F03043B78
:102640001201D2B20B441A7600BF0C37BD465DF8BA
:10265000047B704700E100E000ED00E080B489B049
:1026600000AFF860B9607A60FB6803F00703FB61B4
:10267000FB69C3F10703042B28BF0423BB61FB697B
:102680000433062B02D9FB69033B00E000237B6186
:102690004FF0FF32BB6902FA03F3DA43BB681A401A
:1026A0007B699A404FF0FF317B6901FA03F3D9430C
:1026B0007B680B40134318462437BD465DF8047B06
:1026C0007047000080B582B000AF78607B68013B46
:1026D000B3F1807F01D301230FE00A4A7B68013BFD
:1026E00053600F214FF0FF30FFF78EFF054B0022A4
:1026F0009A60044B07221A60002318460837BD462B
:1027000080BD00BF10E000E080B582B000AF78600F
:102710007868FFF747FF00BF0837BD4680BD80B52A
:1027200086B000AF0346B9607A60FB7300237B611B
:10273000FFF75CFF78617A68B9687869FFF78EFF08
:10274000024697F90F3011461846FFF75DFF00BFAC
:102750001837BD4680BD80B582B000AF786078681C
:10276000FFF7B0FF034618460837BD4680BD00009E
:1027700080B489B000AF7860396000237B610023AA
:102780003B610023BB610023FB6159E10122FB692E
:1027900002FA03F37B613B681B687A6913403B6173
:1027A0003A697B699A4240F048813B685B6803F074
:1027B0000303012B05D03B685B6803F00303022B86
:1027C00030D17B689B68BB61FB695B00032202FA26
:1027D00003F3DB43BA691340BB613B68DA68FB690A
:1027E0005B0002FA03F3BA691343BB617B68BA6901
:1027F0009A607B685B68BB610122FB6902FA03F3A4
:10280000DB43BA691340BB613B685B681B0903F09B
:102810000102FB6902FA03F3BA691343BB617B68E7
:10282000BA695A603B685B6803F00303032B17D057
:102830007B68DB68BB61FB695B00032202FA03F380
:10284000DB43BA691340BB613B689A68FB695B0074
:1028500002FA03F3BA691343BB617B68BA69DA60B1
:102860003B685B6803F00303022B23D1FB69DA08A2
:102870007B68083253F82230BB61FB6903F0070321
:102880009B000F2202FA03F3DB43BA691340BB61DA
:102890003B681A69FB6903F007039B0002FA03F324
:1028A000BA691343BB61FB69DA087B680832B9690E
:1028B00043F822107B681B68BB61FB695B00032245
:1028C00002FA03F3DB43BA691340BB613B685B6800
:1028D00003F00302FB695B0002FA03F3BA691343D6
:1028E000BB617B68BA691A603B685B6803F440337C
:1028F000002B00F0A2800023FB60574B5B6C564A14
:1029000043F480435364544B5B6C03F48043FB609B
:10291000FB68524AFB699B08023352F82330BB61C3
:10292000FB6903F003039B000F2202FA03F3DB436E
:10293000BA691340BB617B68494A934219D07B68EE
:10294000484A934213D07B68474A93420DD07B6834
:10295000464A934207D07B68454A934201D10423FB
:1029600008E0072306E0032304E0022302E001233A
:1029700000E00023FA6902F0030292009340BA6972
:102980001343BB613549FB699B080233BA6941F8BF
:102990002320384B9B68BB613B69DB43BA6913401A
:1029A000BB613B685B6803F48013002B03D0BA69FA
:1029B0003B691343BB612F4ABB6993602D4BDB68B6
:1029C000BB613B69DB43BA691340BB613B685B6831
:1029D00003F40013002B03D0BA693B691343BB61B6
:1029E000244ABB69D360234B5B68BB613B69DB4313
:1029F000BA691340BB613B685B6803F40033002B8A
:102A000003D0BA693B691343BB611A4ABB6953607F
:102A1000184B1B68BB613B69DB43BA691340BB6160
:102A20003B685B6803F48033002B03D0BA693B69D1
:102A30001343BB610F4ABB691360FB690133FB6140
:102A4000FB690F2B7FF6A2AE00BF00BF2437BD4647
:102A50005DF8047B704700BF003802400038014039
:102A6000000002400004024000080240000C024046
:102A700000100240003C014080B483B000AF786099
:102A80000B467B8013467B707B78002B03D07A88C3
:102A90007B689A6103E07B881A047B689A6100BFB7
:102AA0000C37BD465DF8047B7047000080B586B0EA
:102AB00000AF78607B68002B01D1012367E27B685F
:102AC0001B6803F00103002B75D0884B9B6803F053
:102AD0000C03042B0CD0854B9B6803F00C03082BD4
:102AE00012D1824B5B6803F48003B3F5800F0BD1E6
:102AF0007E4B1B6803F40033002B5BD07B685B6864
:102B0000002B57D1012342E27B685B68B3F5803F1D
:102B100006D1764B1B68754A43F4803313601DE081
:102B20007B685B68B3F5A02F0CD1704B1B686F4AB4
:102B300043F4802313606D4B1B686C4A43F480336D
:102B400013600BE0694B1B68684A23F48033136001
:102B5000664B1B68654A23F4802313607B685B68BF
:102B6000002B13D0FFF712FD386108E0FFF70EFDD0
:102B700002463B69D31A642B01D9032307E25B4B5E
:102B80001B6803F40033002BF0D014E0FFF7FEFCC9
:102B9000386108E0FFF7FAFC02463B69D31A642B60
:102BA00001D90323F3E1514B1B6803F40033002BDD
:102BB000F0D100E000BF7B681B6803F00203002B2C
:102BC00063D04A4B9B6803F00C03002B0BD0474BA0
:102BD0009B6803F00C03082B1CD1444B5B6803F487
:102BE0008003002B16D1414B1B6803F00203002B1E
:102BF00005D07B68DB68012B01D00123C7E13B4B8B
:102C00001B6823F0F8027B681B69DB00374913431C
:102C10000B603AE07B68DB68002B20D0344B01224C
:102C20001A60FFF7B3FC386108E0FFF7AFFC02461B
:102C30003B69D31A022B01D90323A8E12B4B1B6854
:102C400003F00203002BF0D0284B1B6823F0F8029E
:102C50007B681B69DB00254913430B6015E0244B9F
:102C600000221A60FFF792FC386108E0FFF78EFC43
:102C700002463B69D31A022B01D9032387E11B4B80
:102C80001B6803F00203002BF0D17B681B6803F084
:102C90000803002B36D07B685B69002B16D0154BE0
:102CA00001221A60FFF772FC386108E0FFF76EFC42
:102CB00002463B69D31A022B01D9032367E10B4B70
:102CC0005B6F03F00203002BF0D01BE0094B0022E6
:102CD0001A60FFF75BFC38610EE0FFF757FC024615
:102CE0003B69D31A022B07D9032350E10038024075
:102CF00000004742800E4742884B5B6F03F002039F
:102D0000002BEAD17B681B6803F00403002B00F062
:102D100097800023FB75814B1B6C03F08053002BC5
:102D20000FD10023BB607D4B1B6C7C4A43F080536A
:102D300013647A4B1B6C03F08053BB60BB680123A8
:102D4000FB75774B1B6803F48073002B18D1744B11
:102D50001B68734A43F480731360FFF717FC3861F4
:102D600008E0FFF713FC02463B69D31A022B01D996
:102D700003230CE16A4B1B6803F48073002BF0D033
:102D80007B689B68012B06D1644B1B6F634A43F041
:102D9000010313671CE07B689B68052B0CD15F4B1C
:102DA0001B6F5E4A43F0040313675C4B1B6F5B4A67
:102DB00043F0010313670BE0584B1B6F574A23F096
:102DC00001031367554B1B6F544A23F00403136729
:102DD0007B689B68002B15D0FFF7D8FB38610AE0B1
:102DE000FFF7D4FB02463B69D31A41F28832934283
:102DF00001D90323CBE0494B1B6F03F00203002BE7
:102E0000EED014E0FFF7C2FB38610AE0FFF7BEFB2B
:102E100002463B69D31A41F28832934201D9032317
:102E2000B5E03E4B1B6F03F00203002BEED1FB7DA0
:102E3000012B05D1394B1B6C384A23F080531364A6
:102E40007B689B69002B00F0A180344B9B6803F0EA
:102E50000C03082B5CD07B689B69022B41D1314B62
:102E600000221A60FFF792FB386108E0FFF78EFB43
:102E700002463B69D31A022B01D9032387E0274B73
:102E80001B6803F00073002BF0D17B68DA697B6864
:102E90001B6A1A437B685B6A9B011A437B689B6AC7
:102EA0005B08013B1B041A437B68DB6A1B061B495A
:102EB00013434B601B4B01221A60FFF767FB38611D
:102EC00008E0FFF763FB02463B69D31A022B01D9E6
:102ED00003235CE0114B1B6803F00073002BF0D060
:102EE00054E0104B00221A60FFF750FB386108E0F5
:102EF000FFF74CFB02463B69D31A022B01D903238F
:102F000045E0064B1B6803F00073002BF0D13DE059
:102F10007B689B69012B07D1012338E00038024010
:102F200000700040600047421B4B5B68FB607B68A1
:102F30009B69012B28D0FB6803F480027B68DB6966
:102F40009A4221D1FB6803F03F027B681B6A9A42D8
:102F50001AD1FA6847F6C07313407A68526A920130
:102F6000934211D1FB6803F440327B689B6A5B0893
:102F7000013B1B049A4207D1FB6803F070627B6837
:102F8000DB6A1B069A4201D0012300E000231846A9
:102F90001837BD4680BD00BF0038024080B584B000
:102FA00000AF786039607B68002B01D10123CCE051
:102FB000684B1B6803F007033A689A420CD9654BCB
:102FC0003A68D2B21A70634B1B6803F007033A6881
:102FD0009A4201D00123B8E07B681B6803F002032A
:102FE000002B20D07B681B6803F00403002B05D066
:102FF000594B9B68584A43F4E05393607B681B68C5
:1030000003F00803002B05D0534B9B68524A43F44E
:1030100060439360504B9B6823F0F0027B689B6891
:103020004D4913438B607B681B6803F00103002B41
:1030300044D07B685B68012B07D1474B1B6803F4C6
:103040000033002B19D101237FE07B685B68022BE2
:1030500003D07B685B68032B07D13F4B1B6803F0F1
:103060000073002B09D101236FE03B4B1B6803F079
:103070000203002B01D1012367E0374B9B6823F04B
:1030800003027B685B68344913438B60FFF77EFA69
:10309000F8600AE0FFF77AFA0246FB68D31A41F2B9
:1030A0008832934201D903234FE02B4B9B6803F0F6
:1030B0000C027B685B689B009A42EBD1254B1B6836
:1030C00003F007033A689A420CD2224B3A68D2B214
:1030D0001A70204B1B6803F007033A689A4201D02C
:1030E000012332E07B681B6803F00403002B08D047
:1030F000194B9B6823F4E0527B68DB681649134345
:103100008B607B681B6803F00803002B09D0124B0F
:103110009B6823F460427B681B69DB000E49134304
:103120008B6000F021F802460B4B9B681B0903F0F3
:103130000F030A49CB5C22FA03F3094A1360094BD7
:103140001B681846FFF7DEF9002318461037BD4606
:1031500080BD00BF003C024000380240986100087A
:1031600000000020040000202DE9B04F90B000AF17
:1031700000237B630023FB6300233B630023BB63CB
:10318000584B9B6803F00C03082B0DD0082B00F262
:10319000A080002B02D0042B03D09AE0524BBB63DB
:1031A0009AE0524BBB6397E04E4B5B6803F03F03E2
:1031B0007B634C4B5B6803F48003002B27D0494BA7
:1031C0005B689B0900223B627A623B6AC3F308009A
:1031D0000021464B03FB01F2002300FB03F31344E1
:1031E000424AA0FB0221F962BA62FA6A1344FB6206
:1031F0007B6B0022BB61FA61D7E90623D7E90A019C
:10320000FDF7DAFC02460B461346FB6353E0354BF1
:103210005B689B0900223B617A613B69C3F3080A42
:103220004FF0000B52465B464FF000004FF000019C
:10323000590141EAD261500102460B46B2EB0A083D
:1032400063EB0B094FF000024FF000034FEA8913C4
:1032500043EA98634FEA8812B2EB080463EB09056E
:103260004FF000024FF00003EB0043EA5473E2001A
:1032700014461D4614EB0A033B6045EB0B037B60D1
:103280004FF000024FF00003D7E9004529468B02BA
:10329000214643EA915321468A02104619467B6B28
:1032A0000022BB60FA60D7E90223FDF785FC0246E5
:1032B0000B461346FB630B4B5B681B0C03F00303CD
:1032C00001335B003B63FA6B3B6BB2FBF3F3BB6315
:1032D00002E0054BBB6300BFBB6B18464037BD46E1
:1032E000BDE8B08F003802400024F40040787D0132
:1032F00080B582B000AF78607B68002B01D10123DC
:103300007BE07B685B6A002B08D17B685B68B3F568
:10331000827F09D07B680022DA6105E07B680022A9
:103320001A617B6800225A617B6800229A627B687E
:1033300093F85130DBB2002B06D17B68002283F872
:1033400050207868FEF75AFC7B68022283F85120EF
:103350007B681B681A687B681B6822F040021A6051
:103360007B685B6803F482727B689B6803F40443A8
:103370001A437B68DB6803F400631A437B681B69AC
:1033800003F002031A437B685B6903F001031A43ED
:103390007B689B6903F400731A437B68DB6903F065
:1033A00038031A437B681B6A03F0800342EA030177
:1033B0007B689B6A03F400527B681B680A431A60AF
:1033C0007B689B691B0C03F004017B685B6A03F05C
:1033D00010027B681B680A435A607B681B68DA69C5
:1033E0007B681B6822F40062DA617B6800225A6500
:1033F0007B68012283F85120002318460837BD4618
:1034000080BD2DE9FF4757EC106B002F0C46194685
:103410003B46BBBF07F100431F4600232D230B7023
:103420000D9BDDF830A0914623F02008BCBF32464A
:103430001646B8F1460F05D0B8F1450F00D101345A
:10344000022100E0032103AB019302AB009347ECA0
:10345000106B5346224600F063FEB8F1470F054655
:1034600019D119F0010F0ED000EB0409002200233E
:1034700030463946FDF730FB08B1CDF80C903022CC
:10348000039B4B451ED3039B0E9A5B1B2846136080
:1034900004B0BDE8F087B8F1460F00EB0409E5D1B0
:1034A0000378302B0AD10022002330463946FDF73D
:1034B00013FB18B9C4F10104CAF80040DAF800306F
:1034C0009944D3E7591C03911A70D9E7F7B500293D
:1034D000BABF49422D232B2309290270437029DDED
:1034E0000DF1070425460A272246B1FBF7F607FB34
:1034F0001613303302F8013C0B46632B04F1FF3402
:103500003146F1DC3031931E04F8011C411C1C468D
:10351000AB420AD30DF109039B1AA54238BF002321
:10352000821C1344181A03B0F0BD13F8016B01F8A4
:10353000016FEDE7302330318370C170031DF1E777
:103540002DE9F04F8DB00C46DDF8588016461F4629
:10355000054600F0E3FC036806931846FCF790FE6E
:1035600000230A93D8F8003094F818A0D4F800B0DB
:103570000790073323F00703B3EC027B8DED047B48
:10358000C8F80030DDE9048323F0004984ED127BA4
:103590009C4B4FF0FF3240464946FDF7CFFA70BBD7
:1035A000984B4FF0FF3240464946FDF7A9FA30BB31
:1035B000DDE9040100220023FDF798FA10B12D2364
:1035C00084F84330904A914BBAF1470F8CBF904634
:1035D0009846032323612BF0040323604FF0000976
:1035E000009733460BAA2146284600F0D1F9013056
:1035F00040F08C804FF0FF300DB0BDE8F08FDDE97A
:10360000042310461946FDF799FA40B1059B804AFC
:10361000002BBCBF2D2384F843307E4BD4E7636876
:103620005A1C0AF0DF093BD1062363604BF4806229
:103630000023226003930AABCDE901A309AB0093F9
:1036400061689DED040B0DF123032846FFF7D9FEB9
:10365000B9F1470F0999804629D1C81C02DB63687C
:103660008B4241DAAAF1020A5FFA8AFA013952461C
:1036700004F150000991FFF729FF0A9A1318012A53
:103680008146236102DC2268D20701D50133236120
:103690009DF82330002BA3D02D2384F843309FE7DF
:1036A000B9F1470FC2D1002BC0D10123BDE7BAF158
:1036B000650FDBD9BAF1660F18D1002963680BDDFD
:1036C000216113B92268D00702D501330B4423616D
:1036D000A1654FF00009DBE713B92268D20701D5D5
:1036E0000233F4E70123F2E74FF0670A0A9B8B42AB
:1036F00005DC23682161D807EAD54B1CE7E70029E0
:10370000D4BFC1F1020201221344E0E723685A0545
:1037100007D42369424631462846B84701302BD1A9
:1037200068E7BAF1650F40F2DD80D4E912010022AA
:103730000023FDF7D1F9002833D0374A0123314661
:103740002846B84701303FF455AFDDE90938434515
:1037500002DB2368D8070FD5DDE90623314628466A
:10376000B84701303FF446AF4FF0000908F1FF3889
:1037700004F11A0AC84509DC23689B0700F103819C
:10378000E0680B9B9842B8BF184635E701235246C4
:1037900031462846B84701303FF42CAF09F1010902
:1037A000E8E7099B002B39DC1B4A012331462846F8
:1037B000B84701303FF41EAFDDE9093959EA030388
:1037C00002D12368D907D7D5DDE90623314628463B
:1037D000B84701303FF40EAF4FF0000A04F11A0B66
:1037E000099B5B42534501DC4B4693E701235A4654
:1037F00031462846B84701303FF4FCAE0AF1010AD1
:10380000EEE700BFFFFFEF7FAC610008A861000892
:10381000B4610008B0610008B8610008A36DDDF86C
:1038200028A05345A8BF5346002B994636DC4FF0DD
:10383000000B29EAE97904F11A02A36D0493A3EBC2
:1038400009035B4531DC099B9A453ADC2368DA07BA
:1038500037D4099BAAEB0309049BAAEB0303994500
:10386000A8BF9946B9F1000F33DC4FF0000829EAF0
:10387000E97904F11A0B099BAAEB0303A3EB0903F3
:1038800043457FF779AF01235A4631462846B8476A
:1038900001303FF4AFAE08F10108ECE74246314693
:1038A0002846B8470130C2D1A4E601233146284654
:1038B0000492B84701303FF49DAE049A0BF1010B1E
:1038C000BBE7DDE9062331462846B8470130C0D1C1
:1038D00090E6049A4B46424431462846B8470130A8
:1038E000C3D187E6DDF828A0BAF1010F01DCDB07C0
:1038F00036D50123424631462846B84701303FF4C9
:1039000079AEDDE9062331462846B84701303FF459
:1039100071AED4E91201002200230AF1FF3AFDF74B
:10392000DBF8C0B9534608F1010231462846B847D2
:1039300001300CD15EE601235A4631462846B8478D
:1039400001303FF457AE08F10108D045F3DB4B4698
:1039500004F15002DFE64FF0000804F11A0BF4E71F
:1039600001234246E1E701234A4631462846B8474B
:1039700001303FF43FAE08F10108E3680B995B1A90
:103980004345F0DCFCE64FF0000804F11909F4E7C8
:103990002DE9F047164698468A680B69DDF82090B5
:1039A0009342B8BF1346336091F8432007460C4654
:1039B0000AB1013333602368990642BF336802338A
:1039C0003360256815F0060506D104F1190AE3688D
:1039D00032689B1AAB4226DC94F843302268003BE5
:1039E00018BF012392062BD404F143024146384606
:1039F000C84701301ED02368226903F00603042B58
:103A000002BFE5683368ED1AA3680CBF25EAE575C7
:103A100000259342C4BF9B1AED1800261A34B54204
:103A20001AD1002008E00123524641463846C847D3
:103A3000013003D14FF0FF30BDE8F0870135C6E714
:103A4000E1185A1C302081F84300224494F84510B4
:103A500082F843100233C7E7012322464146384625
:103A6000C8470130E6D00136D9E700002DE9F04320
:103A70000D7E85B0782D90460C9E07460C469946E3
:103A800001F1430207D8622D0AD8002D00F0D7803B
:103A9000582D00F0BC8004F1420684F842503BE00F
:103AA000A5F16303152BF6D801A151F823F000BF4F
:103AB000093B00081D3B0008973A0008973A0008A8
:103AC000973A0008973A00081D3B0008973A00080B
:103AD000973A0008973A0008973A0008253C0008F2
:103AE000473B0008D73B0008973A0008973A000880
:103AF000473C0008973A0008473B0008973A0008FF
:103B0000973A0008DF3B000833681A1D1B683260D3
:103B100004F1420684F842300123A1E033682068B2
:103B2000191D3160060601D51D6803E04506FBD569
:103B3000B3F90050002D03DA2D236D4284F8433091
:103B40005B480A2311E021683368080653F8045BD8
:103B500002D4490648BFADB23360237E54486F2B70
:103B60005CD10823002184F843106668A660002E0B
:103B700005DB21682E4321F00401216050D0164658
:103B8000B5FBF3F103FB115C10F80CC006F801CD96
:103B9000AC4663450D46F3D9082B0BD12368DB07F0
:103BA00008D5236961689942DEBF302306F8013CDD
:103BB00006F1FF36921B2261CDF80090434603AA1E
:103BC00021463846FFF7E4FE01304ED14FF0FF307A
:103BD00005B0BDE8F083236843F020032360354837
:103BE000782584F845502368316813F0800F51F828
:103BF000045B03D113F0400F18BFADB23160D90799
:103C000044BF43F0200323601DB11023AAE72848D6
:103C1000E7E7236823F020032360F6E70A23A1E700
:103C20001646B9E7336825686169181D30602E06AD
:103C30001B6801D5196002E06806FBD519800023D6
:103C400023611646B8E733681A1D32601E68626841
:103C500000213046FCF7C4FA08B1801B606063683D
:103C60002361002384F84330A6E7236932464146A6
:103C70003846C8470130A9D023689B0713D4E068B1
:103C8000039B9842B8BF1846A2E70123324641463B
:103C90003846C847013099D00135E36803995B1A6B
:103CA000AB42F2DCEBE7002504F11906F5E700BFB3
:103CB000BA610008CB610008002310B50446C0E9D2
:103CC0000033C0E90433836081814366C28183612C
:103CD000194608225C3000F019F90D4B63620D4B58
:103CE000A3620D4BE3620D4B23630D4B24629C4298
:103CF00006D003F16802944202D0D0339C4205D131
:103D000004F15800BDE8104000F07CB910BD00BFC0
:103D1000853E0008A73E0008DF3E0008053F00087A
:103D2000F4040020024A0349034800F06BB800BFC6
:103D30000C0000209D5900081C00002041680C4B1D
:103D4000994210B5044601D001F028FEA168094B44
:103D5000994202D0204601F021FEE168064B9942CB
:103D600004D02046BDE8104001F018BE10BD00BFD1
:103D7000F40400205C050020C40500200C4B0D4A13
:103D80000D4810B504211A600022FFF795FF0A4B79
:103D900001221C46092103F16800FFF78DFF04F1A1
:103DA000D0000222BDE810401221FFF785BF00BFFE
:103DB0002C060020253D0008F4040020014800F0F6
:103DC00022B900BF35060020014800F01DB900BF30
:103DD0003506002010B50446FFF7F0FF236A1BB13B
:103DE000BDE81040FFF7F0BF044B2362044B1B6893
:103DF000002BF5D1FFF7C2FFF2E700BF3D3D000801
:103E00002C0600202DE9F843074688461446002674
:103E1000D4E90195B9F1010905D52468002CF7D141
:103E20003046BDE8F883AB89012B07D9B5F90E30D0
:103E3000013303D029463846C04706436835E9E7D1
:103E40000EB410B59DB01FAB029006906FF000410C
:103E50000A48079104910A4953F8042B059100245C
:103E600002A9006801931B9401F01EFC029B1C70C8
:103E70001DB0BDE8104003B0704700BF180000201F
:103E80000802FFFF10B50C46B1F90E1000F06CF8F7
:103E90000028ABBF636DA3891B1823F48053ACBF0C
:103EA0006365A38110BD2DE9F0411F468B89DB05B9
:103EB00005460C46164605D5B1F90E100223002220
:103EC00000F040F8A389B4F90E1023F48053A381C5
:103ED00032463B462846BDE8F04100F057B810B5E1
:103EE0000C46B1F90E1000F02DF8B4F90C30421C5C
:103EF0000BBF23F4805343F48053A381A38118BFE5
:103F0000606510BDB1F90E1000F00CB80244034614
:103F1000934200D1704703F8011BF9E7004870474E
:103F20005801002038B5064D0023044608462B6092
:103F3000FDF76DFF431C02D12B6803B1236038BD30
:103F40003006002038B5074D0446084611460022C9
:103F50002A601A46FDF782FF431C02D12B6803B189
:103F6000236038BD3006002038B5074D04460846AA
:103F7000114600222A601A46FDF710FF431C02D1A9
:103F80002B6803B1236038BD3006002038B5074DDB
:103F900004460846114600222A601A46FDF71BFF18
:103FA000431C02D12B6803B1236038BD30060020CA
:103FB000014B1868704700BF1800002070B50D4B0A
:103FC0000D4D5B1B9C100026A64209D102F07AF829
:103FD0000A4D0B4B5B1B9C100026A64205D170BD01
:103FE00055F8043B98470136EEE755F8043B9847EF
:103FF0000136F2E7246500082465000824650008FE
:10400000286500087047704770472DE9F74F03692E
:104010000C69A34207467EDB013C01F11408A300B2
:1040200000F11405009305EB8403019358F8243044
:1040300055F8242001339A4208EB8409B2FBF3F6C9
:104040002ED34FF0000AC446AE46D3465CF8043B7C
:1040500098B206FB00A0020C1B0C06FB0323DEF843
:10406000002080B292B2121A5A44DEF800004FEAE1
:10407000134A9BB2C3EB224303EB104392B242EAD2
:104080000342E1454EF8042B4FEA234BDED2009B5E
:10409000EB582BB9019B043B9D421A462FD33C6140
:1040A000384601F095F9002825DB2946002058F80C
:1040B000042BD1F800C01FFA82FE1FFA8CF3A3EB89
:1040C0000E030344120CC2EB234202EB1C429BB2D0
:1040D00043EA0243C14541F8043B4FEA2240E6D29D
:1040E00055F8242005EB840322B9043B9D421A466F
:1040F0000BD33C610136304603B0BDE8F08F126847
:10410000043B002ACBD1013CC6E71268043B002ADD
:10411000EFD1013CEAE70020EEE7000000000000DC
:104120002DE9F04F99B08DED0E0B0C92C269229CD7
:104130000A9157EC106B8146139382B9102000F05E
:1041400015FE0246C9F81C0020B9AB4BEF21AB4865
:1041500001F084FC0023C0E901330360C3601168EF
:1041600059B152684A60012393408B60484600F081
:10417000F1FED9F81C3000221A60B7F10008B5BF73
:1041800001230023236023609D4BBCBF28F000481F
:10419000CDF83C8033EA08031AD1139AC8F3130808
:1041A00042F20F7358EA0608136000F06885239BFB
:1041B00053B9944B21E0944B00930833239A136036
:1041C000009819B0BDE8F08F8E4B00930333F5E7EC
:1041D0009DED0E7B002251EC170B00238DED067B2D
:1041E000FCF77AFC824650B1139A01231360239B9B
:1041F00013B1239A854B1360854B0093E0E79DED47
:10420000060B16AA17A9484601F096F95FEA18545A
:10421000169D019079D0079BCDF850A0C3F31303EE
:10422000DDE9060143F07F5343F44013A4F2FF3469
:1042300019460022774BFCF72FF869A3D3E9002336
:10424000FCF7E2F968A3D3E90023FCF727F8064658
:1042500020460F46FCF76EF965A3D3E90023FCF76F
:10426000D3F902460B4630463946FCF717F80646A6
:104270000F46FCF779FC0022804600233046394681
:10428000FCF734FC48B14046FCF754F932463B4653
:10429000FCF722FC08B908F1FF38B8F1160F51D825
:1042A0005D4B03EBC803D3E90023DDE90601FCF70E
:1042B0001DFC002848D008F1FF38002312932D1B65
:1042C0006B1E089343BF0023C5F101070893002725
:1042D000B8F1000F3ADB089BCDF8348043440893D3
:1042E000002309930A9B092B62D8052BC4BF043B0A
:1042F0000A930A9BA3F10203CCBF00240124032BE1
:1043000062D8DFE803F05153362B179C2C4404F29B
:104310003243202BC1BFC3F1400308FA03F804F273
:10432000124326FA03F3D6BFC3F1200348EA030081
:1043300006FA03F0FCF7EEF80122A1F1F873013C54
:10434000149275E70123B9E71290B8E7C8F10003AA
:1043500009930023A7EB08070D93C3E701230B93F1
:104360000C9B434405930133012B0493B8BF0123F5
:1043700006E001230B930C9B002B28DDCDE90433D1
:10438000D9F81C000021042202F114059D4223D912
:104390004160484600F0A0FD0090002840D11F4B2E
:1043A000024640F2AF11D2E60023E3E70023D6E74E
:1043B00001240023CDE90A344FF0FF33CDE9043363
:1043C000002212230C92DBE701230B93F4E7012375
:1043D000CDE904331A46F5E701315200D4E700BFB6
:1043E00061436F63A787D23FB3C8608B288AC63FFB
:1043F000FB799F501344D33FE96100080062000835
:104400000000F07FE5610008DC610008B961000888
:10441000B86100080000F83F5063000858620008C7
:10442000D9F81C30009A1A60049B0E2B00F2A18070
:10443000002C00F09E80B8F1000F36DD9E4B08F096
:104440000F0203EBC20318F4807FD3E900AB4FEAFD
:10445000281516D0994BDDE90601D3E90823FCF7AE
:10446000FDF9CDE9020105F00F050324934E75B95E
:10447000DDE9020152465B46FCF7F0F982468B46C5
:104480002DE09DED067B02248DED027BEEE7E90732
:1044900008D550465946D6E90023FCF7B5F8013453
:1044A00082468B466D100836E1E700F0AD80C8F11A
:1044B0000005814B814E05F00F0203EBC203D3E9E7
:1044C0000023DDE90601FCF79FF82D1182468B469B
:1044D00000230224002D40F08C80002BCED1129BB3
:1044E000002B00F09580764B002250465946FCF791
:1044F000FDFA002800F08C80049B002B00F08880DF
:10450000059B002B35DD08F1FF33029350465946D9
:104510006C4B0022FCF778F8059E82468B460134EE
:104520002046FCF707F852465B46FCF76DF8664BF1
:104530000022FBF7B3FE0446A1F15075CDE910450A
:10454000002E69D1614B002250465946FBF7A4FE6C
:1045500022462B4682468B46FCF7E6FA002840F0BE
:104560009482224605F1004350465946FCF7BEFAB4
:1045700020BB179B002BC0F26081B8F10E0F00F337
:104580005C814D4B03EBC803D3E900AB0C9B002BC4
:1045900080F2EE80049B002B00F3EA800ED14B4B9F
:1045A000002250465946FCF72FF802460B46DDE93B
:1045B0000601FCF7A5FA002800F06A8200252C46C7
:1045C0000C9B009EDB430293274600242946484665
:1045D00000F0C0FC002F00F0C1802CB1BC4203D021
:1045E0002146484600F0B6FC3946484600F0B2FC89
:1045F000B4E0EA0705D5D6E90023FCF705F8013455
:1046000001236D10083665E7DDE906AB022466E795
:10461000049ECDF8088083E7274B03EBC60353E9DC
:1046200002010B9B002B55D002460B460020284967
:10463000FCF714F9DDE91023FBF72EFE009BCDE912
:1046400010019D191E4659465046FCF78DFA044646
:10465000FBF770FF02460B4650465946FBF71CFE1F
:104660003034DDE9102306F8014B82468B46FCF717
:104670003DFA002872D152465B4611490020FBF7F3
:104680000BFEDDE91023FCF731FA002840F0B6807C
:10469000AE423FF46EAFDDE910010A4B0022FBF79A
:1046A000B3FF084BCDE91001002250465946FBF7F5
:1046B000ABFF82468B46C6E75063000828630008BC
:1046C0000000F03F0000244000001C4000001440A7
:1046D0000000E03FDDE91023FBF796FF009B009D03
:1046E000CDE910013344159359465046FCF73CFA86
:1046F0000446FBF71FFF30340B460246594650462E
:10470000FBF7CAFD05F8014B159B9D4282468B467F
:1047100027D1009B0022DDE910011E44B34BFBF7BB
:10472000BDFD02460B4650465946FCF7FDF90028F0
:1047300064D1DDE91023AD490020FBF7ADFD024651
:104740000B4650465946FCF7D1F900283FF411AF0B
:10475000334616F8012D302AFAD01E46DDF80880BF
:104760003AE0A34B0022FBF74FFF82468B46BBE7A4
:10477000009E52465B46DDE90601FCF76FF8FCF748
:10478000F3F90746FBF7D6FE52465B46FBF73CFFC4
:1047900002460B46DDE90601FBF77EFD07F1300C12
:1047A000009C06F801CBA6EB040C049C6445024671
:1047B0000B4633D1FBF772FD52465B4604460D466D
:1047C000FCF7B2F9C0B952465B4620462946FCF7D1
:1047D00083F908B1FB070FD40199484600F0BAFBF2
:1047E0000023139A337008F101031360239B002BFD
:1047F0003FF4E6AC1E60E3E4CDF8088033461E4685
:1048000013F8012D392A06D1009A9A42F7D1029A5B
:1048100001320292302201321A709FE7744B00225B
:10482000FBF7F2FE02460B46CDE9062300220023E9
:10483000FCF752F900289CD0CEE70B9A002A00F032
:10484000E3800A9A012A00F3C280149A002A00F039
:10485000BA8003F23343099D3E46089A01211A4467
:1048600048461F44089200F029FC044656B1089BB4
:10487000002B07DDB342089AA8BF3346FF1AF61A89
:10488000D31A0893099B0BB30B9B002B00F0C3803A
:10489000002D00F0BD8021462A46484600F0CEFC9F
:1048A000019A01460446484600F01EFC01998246E2
:1048B000484600F04FFB099B5B1B099300F0AE805C
:1048C000099A5146484600F0B9FC0190012148463A
:1048D00000F0F4FB0D9B0546002B00F0D7811A4633
:1048E0000146484600F0AAFC0A9B012B054600F34E
:1048F0009D800E9B002B40F094800F9BC3F313030D
:10490000002B40F08E800F9B23F000431B0D1B05F6
:10491000002B00F08980089B0133013708934FF08A
:10492000010A0D9B002B00F0B7812B6905EB830377
:10493000186900F077FBC0F12000089B184410F0C4
:104940001F007ED0C0F12003042B72DD089BC0F154
:104950001C000344074406440893002F05DD019919
:104960003A46484600F0C6FC0190089B002B05DD46
:1049700029461A46484600F0BDFC0546129B002B0E
:1049800061D00198294600F023FD00285BDA08F188
:10499000FF330293019900230A22484600F0FCFAF3
:1049A0000B9B0190002B00F07981002321460A2205
:1049B000484600F0F1FA059B002B044672DC0A9B86
:1049C000022B49DC6EE0169BC3F1360343E7049BE0
:1049D0005D1E099BAB420DDB5D1B049B002BBFF6EC
:1049E0003BAF049BFE1A002337E700BF0000E03F07
:1049F00000002440099B0D9A0995EB1A1A440D9268
:104A0000049B3E46002528E7099D0B9C3E462DE76A
:104A1000DDF804A054E7099A019953E7CDF804A002
:104A200054E74FF0000A7CE79A467AE74FF0000A15
:104A30007BE792D0089A1C331A441F441E44089204
:104A40008BE70346F6E7049BCDF80880002B23DCB8
:104A500005930A9B022B21DD059B002B7FF4B0AD53
:104A600029460522484600F097FA01460546019876
:104A700000F0AEFC00287FF7A3AD009E312306F8BE
:104A8000013B029B013302939EE535462C46F4E739
:104A9000049DCDF80880F9E7049B05930B9B002B40
:104AA00000F00081002E05DD21463246484600F028
:104AB00021FC0446BAF1000F5AD06168484600F064
:104AC0000BFA064628B9824B024640F2EF21FFF767
:104AD0003EBB22690232920004F10C010C3000F05E
:104AE000AFFF01223146484600F004FC0746009B18
:104AF000009A03F1010B059B134406930E9B03F0F0
:104B0000010308930BF1FF33294601980493FFF743
:104B10007CFA2146059000F1300A019800F058FC1B
:104B20003A4680462946484600F06EFCC268064672
:104B300002BB0146019800F04BFC02463146484654
:104B4000099200F007FADDE9092342EA0301089B14
:104B500019435E4610D1BAF1390F2BD0B8F1000FCE
:104B600002DD059B03F1310A049B83F800A02DE5CB
:104B70002746BCE70122E1E7B8F1000F06DB0A9BFC
:104B800048EA0308089B58EA030820D1002AEBDD15
:104B900001990122484600F0ADFB2946019000F042
:104BA00017FC002803DCDFD11AF0010FDCD0BAF1CA
:104BB000390FD6D1049A3923137033461E46013B70
:104BC00016F8012C392A52D001321A70FEE4002A5C
:104BD00007DDBAF1390FEDD0049A0AF10103137021
:104BE000F4E4069B0BF801AC5B452AD00199002345
:104BF0000A22484600F0D0F9BC4201904FF0000371
:104C00004FF00A022146484606D100F0C5F9044695
:104C100007460BF1010B75E700F0BEF93946044673
:104C200000230A22484600F0B7F90746F1E7059B42
:104C30005E1E002B009BD8BF00265A1C2746164438
:104C4000002401990122484600F054FB29460190B6
:104C500000F0BEFB0028B0DC02D11AF0010FACD18D
:104C600033461E4613F8012D302AFAD0AEE4009ADE
:104C70009A42A3D1029B013302933123AFE7239BD6
:104C8000002B7FF498AA134BFFF7B7BA0A9B012BAE
:104C90007FF72FAEDDF834A001204EE6059B002BF8
:104CA0007FF7D7AE009E01982946FFF7AEF900F1D5
:104CB000300A009B06F801ABF21A059B9342B6DD61
:104CC000019900230A22484600F066F90190EAE7BC
:104CD00058620008DC61000838B50546002941D05B
:104CE00051F8043C0C1F002BB8BFE41800F0E8F8A2
:104CF0001D4A136833B9636014602846BDE8384024
:104D000000F0E4B8A34208D9206821188B4201BF03
:104D100019685B6809182160EDE71A465B680BB1FA
:104D2000A342FAD911685018A0420BD1206801445F
:104D3000501883421160E0D118685B6853600844E2
:104D40001060DAE702D90C232B60D6E7206821181F
:104D50008B4204BF19685B68636004BF0918216057
:104D60005460CAE738BD00BF3C060020024B014634
:104D7000186800F025B800BF1800002070B50F4E6D
:104D80000C463168054611B900F04AFE30602146F4
:104D9000284600F045FE431C03D14FF0FF34204667
:104DA00070BDC41C24F00304A042F8D0211A284688
:104DB00000F036FE0130F2D1EFE700BF38060020E8
:104DC0002DE9F843CD1C25F0030508350C2D38BF1F
:104DD0000C25002D064601DBA94204D90C233360C3
:104DE0000020BDE8F883DFF8D48000F069F8D8F837
:104DF00000301C4644BB29463046FFF7BFFF431C2A
:104E0000044658D1D8F800402746002F43D1002C43
:104E10004BD023683946304604EB030900F000FE0E
:104E2000814542D121686D1A29463046FFF7A6FF19
:104E300001303AD023682B442360D8F800305A68F8
:104E400062BBC8F800700FE02268521B20D40B2A06
:104E500017D96119A342256018BF5960636808BF5C
:104E6000C8F8001062514B60304600F02FF804F192
:104E70000B00231D20F00700C21A1CBF1B1AA350F1
:104E8000AFE76268A3420CBFC8F800205A60EBE7A6
:104E900023466468AEE73C467F68B6E71A465B681F
:104EA000A342FBD100235360DEE70C23336030467E
:104EB00000F00CF894E70560D6E700BF3C06002040
:104EC0000148FFF7A0B800BF340600200148FFF7F3
:104ED0009BB800BF3406002070B5C46905460E4675
:104EE00084B91020FFF742FF0446E86128B9024662
:104EF000164B17486B2100F0B1FD0023C0E90133C8
:104F00000360C360E36853B921220421284600F0FE
:104F1000C3FDEB69E060DB680BB9002070BD53F89E
:104F2000260030B1026843F826200023C0E903338D
:104F3000F4E7012101FA06F4621D9200284600F010
:104F4000ABFD0028E9D0C0E90164EEE7E9610008A3
:104F50006962000870B5C66905460C4676B910202E
:104F6000FFF704FF0246E86120B9094B09488F2189
:104F700000F074FDC0E901660660C6603CB1EB69F3
:104F80006268DB6853F82210216043F8224070BD4C
:104F9000E9610008696200082DE9F0410D690746E2
:104FA0000C461E4601F1140C0020DCF8003099B2CA
:104FB00002FB01611E0C0B0C02FB063389B20130AF
:104FC00001EB034185424CF8041B4FEA1346ECDC2D
:104FD0000EB3A368AB4219DC616838460131FFF7B4
:104FE0007BFF804628B902460C4B0D48BA2100F0E1
:104FF00035FD2269023204F10C0192000C3000F000
:105000001FFD21463846FFF7A5FF444604EB850304
:1050100001355E6125612046BDE8F08158620008D7
:1050200069620008B0F5803F034636BF03040020E4
:105030001020B3F1807F3CBF1B020830B3F1805FCA
:105040003CBF1B010430B3F1804F3CBF9B000230DA
:10505000002B05DB13F0804F00F1010008BF20207A
:1050600070470368024613F007000BD0D90721D41C
:10507000980749BF5B089B08012013605CBF136061
:105080000220704799B209B91B0C1020D9B209B996
:1050900008301B0A190704BF1B090430990704BF15
:1050A0009B080230D90703D45B0800F1010003D04C
:1050B00013607047002070472020704710B50C46E1
:1050C0000121FFF709FF024628B9054B054840F2C8
:1050D000451100F0C3FC01234461036110BD00BF12
:1050E00058620008696200082DE9F04FD1F810906D
:1050F000D2F810A0D14585B08846144604DB53464B
:105100000C46CA4690469946A36861680AEB0906B0
:10511000B342B8BF0131FFF7DFFE30B90246454B5D
:1051200045484FF4B17100F099FC00F1140505EB0E
:1051300086072B460022BB421FD304F1140C08F152
:1051400014010CEB8A0301EB890202921A1B153A37
:1051500022F0030215349C4288BF00220192029A79
:1051600003918A420CD8002E03DD57F8043D002B32
:105170005DD0066105B0BDE8F08F43F8042BDAE797
:10518000B1F800A0BAF1000F24D0E046A9464FF0D4
:10519000000E58F8042BD9F800401FFA82FBA4B285
:1051A0000AFB0B444FEA124BD9F8002074444FEA33
:1051B000124E0AFB0BE202EB1442A4B244EA024490
:1051C000434549F8044B4FEA124EE2D8019AAA1817
:1051D000C2F804E0039AB2F802800431B8F1000F7B
:1051E00023D02A68E6469146AA464FF0000BBEF847
:1051F000004008FB04B404EB194492B242EA0442B2
:105200004AF8042B5EF8042BDAF800904FEA124BB0
:105210001FFA89F208FB0B2202EB144273454FEA96
:10522000124BE4D8019C2C196260043597E7013ECB
:1052300099E700BF58620008696200082DE9F84349
:10524000174612F0030280460D4607D0264C013A5D
:10525000002354F82220FFF79FFE0546BF103FD0E1
:10526000D8F81C4094B91020FFF780FD0446C8F818
:105270001C0030B902461D4B1D4840F2B31100F02E
:10528000EDFB0023C0E901330360C360A66846B9A3
:1052900040F271214046FFF711FF0023A06006464F
:1052A00003602C464FF0000907F001037F1053B153
:1052B000294632464046FFF717FF2146054640463D
:1052C000FFF748FE67B1306838B93246314640468C
:1052D000FFF70AFF3060C0F8009006462C46E3E76F
:1052E0002846BDE8F88300BF1C630008E961000898
:1052F000696200082DE9F84F0C464968236903EB01
:105300006218A368074615464FEA621A08F10109B8
:105310004B450BDB3846FFF7DFFD064648B9024632
:10532000294B2A484FF4EF7100F098FB01315B00E4
:10533000EEE7002300F1140C00F11002194653456A
:1053400035DB22692AEAEA7A0CEB8A0C04F11403B1
:1053500015F01F0E614603EB82022CD0CEF1200A1D
:10536000002518688B4600FA0EF02843CBF80000A1
:1053700053F8045B9A4201F1040125FA0AF5F0D8CA
:10538000131B153B23F0030304F115018A4238BFB8
:1053900000239C44CCF8045005B9C1463846C6F8F1
:1053A00010902146FFF7D6FD3046BDE8F88F42F851
:1053B000041F0133C3E753F8045B0D609A4201F107
:1053C0000401F8D8E9E700BF5862000869620008E4
:1053D0000A6903460069801A30B50ED114331431BE
:1053E00003EB820401EB820154F8045D51F8042DB3
:1053F000954203D005D24FF0FF3030BDA342F3D326
:10540000FBE70120F9E700002DE9F74F8A46064641
:10541000114650461446FFF7DBFF051E12D1294600
:105420003046FFF759FD024628B9414B40F237217B
:10543000404800F013FB0123C0E90435104603B0D7
:10544000BDE8F08FBCBF5346A2463046DAF80410E0
:10545000BABF1C4601250025FFF73EFD024618B9DC
:10546000334B40F24521E3E7DAF810702669C56056
:105470000AF1140904F1140E00F114050AF11003E5
:1054800009EB87080EEB86060193AB464FF0000C44
:10549000019B5EF8040B53F804AF01931FFA8AF3E3
:1054A000194683B2CB1A000C6344C0EB1A4000EBE0
:1054B00023409BB243EA004376454BF8043B4FEA56
:1054C000204CE5D8331B153B153423F00303A642CB
:1054D00038BF0023E8184B441C1D04302646A5EBBA
:1054E0000905464506EB050E0ED308F10301091B1D
:1054F00021F003010133984538BF0021014451F8E0
:10550000043D9BB1176199E756F8041BE2464FEA48
:1055100011491CFA81FC514409EB2C4989B241EA3A
:1055200009414FEA294CCEF80010DAE7013FE6E7DF
:1055300058620008696200082DE9F7430F4601210F
:1055400059EC108B1646FFF7C7FC044630B90246EB
:10555000234B244840F20F3100F080FAC9F30A557A
:10556000C9F313030DB143F480130193B8F10003A1
:1055700023D068460093FFF774FD0099D8B1019AD3
:10558000C0F1200302FA03F30B43C24063610192AE
:10559000019BA361002B0CBF012202222261A5B155
:1055A000A5F2334505443D60C0F13500306020462A
:1055B00003B0BDE8F0836161EAE701A8FFF751FDA0
:1055C000019B636120300122E8E704EB8203A0F233
:1055D000324038601869FFF725FDC0EB4210E5E75F
:1055E00058620008696200082DE9F0478E681F467E
:1055F000BE4282460C469046334653D8B1F90C0061
:1056000010F4906F2BD065692368096905EB450597
:10561000A3EB010905EBD5757B1C6D104B44AB4228
:105620002A4684BF1D462A46430527D511465046C3
:10563000FFF7C6FB064658B321694A4600F000FA58
:10564000A38923F4906343F08003A38126616561FD
:105650004E44A5EB09052660A5603E463B461F4625
:1056600020683A46414600F0C1F9A3689B1BA3603D
:1056700023683B4423600020BDE8F087504600F0DB
:1056800031FA06460028E1D121695046FFF724FB94
:105690000C23CAF80030A38943F04003A3814FF0E4
:1056A000FF30E9E73E46DBE72DE9F0471F468B89EF
:1056B0001B069CB006460D46144610D50B6973B9FF
:1056C0004021FFF77DFB2860286130B90C2333604F
:1056D0004FF0FF301CB0BDE8F08740236B61002322
:1056E000099320238DF8293003973023654F8DF8D7
:1056F0002A304FF001082346994613F8012B0AB1CE
:10570000252AF9D1B9EB040A0BD053462246294683
:105710003046FFF769FF013000F0A480099A524437
:10572000099299F80030002B00F09C8000234FF084
:10573000FF32CDE9052309F10109049307938DF8A0
:1057400053301A934C464F4814F8011B0522FAF7C0
:1057500047FD049BD0B9D80644BF20228DF85320C2
:10576000190744BF2B228DF8532099F800202A2ACC
:1057700013D0079A4C4600204FF00A0C214611F82E
:10578000013B303B092B49D968B913E0C01B08FA2B
:1057900000F018430490A146D4E7039A111D126843
:1057A0000391002A01DB079204E0524243F0020316
:1057B0000792049323782E2B0AD163782A2B32D1B7
:1057C000039B1A1D1B68039243EAE373023405939B
:1057D000DFF8C090217803224846FAF701FD38B17E
:1057E000049BA0EB09004022824013430134049340
:1057F00014F8011B24488DF828100622FAF7F0FC53
:10580000002835D0214818BB039B073323F007033A
:1058100008330393099B034409936CE70CFB0232A2
:105820000C460120AAE700230134059319464FF0E6
:105830000A0C204610F8012B303A092A03D9002B14
:10584000C6D00591C4E70CFB012104460123F0E713
:1058500003AB00932A460E4B04A93046FDF770FEB9
:10586000421CD7D1AB895B063FF532AF099831E7CF
:1058700003AB00932A46064B04A93046FEF7F6F820
:10588000EEE700BFC2620008CC62000841350008A4
:10589000E9550008C8620008B1F90C202DE9F04173
:1058A000160705460C4651D44B68002B02DC0B6CE6
:1058B000002B49DDE66A002E46D0002312F4805208
:1058C0002F682B6031D0626DA389590705D56368B5
:1058D000D21A636B0BB1236CD21A0023E66A216AD9
:1058E0002846B047421CB4F90C3006D129681D295E
:1058F00046D8294ACA40D60742D500226260D90458
:105900002269226004D5421C01D12B6803B960656D
:10591000616B2F60C1B104F14403994202D0284663
:10592000FFF7DAF9002363630EE0216A01232846BA
:10593000B0470246501CC7D12B68002BC4D01D2B8A
:1059400001D0162B1AD12F6000201EE00F69002F06
:10595000FAD093070E6808BF4B690F6018BF002389
:10596000A6EB07088B60B8F1000FEDDD216AA66A8F
:1059700043463A462846B047002808DCB4F90C30C4
:1059800043F04003A3814FF0FF30BDE8F0810744AE
:10599000A8EB0008E7E700BF0100402038B50B691D
:1059A00005460C4613B90025284638BD18B1036AD0
:1059B0000BB9FEF70FFAB4F90C30002BF3D0626E7E
:1059C000D00704D4990502D4A06DFEF71CFB28462D
:1059D0002146FFF761FF636EDA070546E4D4A38929
:1059E0009B05E1D4A06DFEF70FFBDDE7884210B503
:1059F00001EB020402D98442234607D8431EA14288
:105A000007D011F8012B03F8012FF8E70244824276
:105A100000D110BD13F8011D02F8011DF7E70000C9
:105A200038B5064D0023044608462B60FCF724FADF
:105A3000431C02D12B6803B1236038BD300600201F
:105A40000A44914200F1FF3300D1704710B511F8BC
:105A5000014B03F8014F9142F9D110BD1FB5144617
:105A60001A46094B1B680546D8684CB1074B009194
:105A7000CDE9013406492B4600F070F800F080F8BB
:105A8000044B1C46F3E700BF18000020DD6200084D
:105A9000EA6200081863000870B5A1FB025434B92B
:105AA0002946FFF78DF9064628B9304670BD0C220D
:105AB00002600026F9E72A462146FEF727FAF4E7B6
:105AC00082B001B901A942B14BB113780B601278D1
:105AD000101E18BF012002B070471046FBE76FF0A0
